{
  "address": "0x11a7d0501895059177e8436fe89bb1e3bdebf8d8",
  "abi": [
    {
      "inputs": [
        {
          "internalType": "address",
          "name": "_expertCommittee",
          "type": "address"
        },
        {
          "internalType": "contract IERC20",
          "name": "_token",
          "type": "address"
        },
        {
          "internalType": "uint256",
          "name": "_bondsNeededToStartDispute",
          "type": "uint256"
        },
        {
          "internalType": "uint256",
          "name": "_minBondAmount",
          "type": "uint256"
        },
        {
          "internalType": "uint256",
          "name": "_resolutionChallengePeriod",
          "type": "uint256"
        },
        {
          "internalType": "uint256",
          "name": "_submitClaimRequestReviewPeriod",
          "type": "uint256"
        }
      ],
      "stateMutability": "nonpayable",
      "type": "constructor"
    },
    {
      "inputs": [],
      "name": "AlreadyChallenged",
      "type": "error"
    },
    {
      "inputs": [],
      "name": "AlreadyResolved",
      "type": "error"
    },
    {
      "inputs": [],
      "name": "BondAmountSubmittedTooLow",
      "type": "error"
    },
    {
      "inputs": [],
      "name": "CanOnlyBeCalledByCourt",
      "type": "error"
    },
    {
      "inputs": [],
      "name": "CannontChangeCourtAddress",
      "type": "error"
    },
    {
      "inputs": [],
      "name": "CannotClaimBond",
      "type": "error"
    },
    {
      "inputs": [],
      "name": "CannotDismissUnchallengedResolution",
      "type": "error"
    },
    {
      "inputs": [],
      "name": "CannotSubmitMoreEvidence",
      "type": "error"
    },
    {
      "inputs": [],
      "name": "ChallengePeriodDidNotPass",
      "type": "error"
    },
    {
      "inputs": [],
      "name": "ChallengePeriodPassed",
      "type": "error"
    },
    {
      "inputs": [],
      "name": "ClaimDisputesDismissed",
      "type": "error"
    },
    {
      "inputs": [],
      "name": "ClaimExpired",
      "type": "error"
    },
    {
      "inputs": [],
      "name": "ClaimIsNotCurrentlyActiveClaim",
      "type": "error"
    },
    {
      "inputs": [],
      "name": "ClaimIsNotDisputed",
      "type": "error"
    },
    {
      "inputs": [],
      "name": "ClaimReviewPeriodDidNotEnd",
      "type": "error"
    },
    {
      "inputs": [],
      "name": "ClaimReviewPeriodEnd",
      "type": "error"
    },
    {
      "inputs": [],
      "name": "CourtCannotBeZero",
      "type": "error"
    },
    {
      "inputs": [],
      "name": "NoResolution",
      "type": "error"
    },
    {
      "inputs": [],
      "name": "OnlyExpertCommittee",
      "type": "error"
    },
    {
      "inputs": [],
      "name": "bondsNeededToStartDisputeMustBeHigherThanMinAmount",
      "type": "error"
    },
    {
      "anonymous": false,
      "inputs": [
        {
          "indexed": true,
          "internalType": "contract IHATClaimsManager",
          "name": "_vault",
          "type": "address"
        },
        {
          "indexed": true,
          "internalType": "bytes32",
          "name": "_claimId",
          "type": "bytes32"
        },
        {
          "indexed": false,
          "internalType": "address",
          "name": "_disputer",
          "type": "address"
        },
        {
          "indexed": false,
          "internalType": "uint256",
          "name": "_amountClaimed",
          "type": "uint256"
        }
      ],
      "name": "BondRefundClaimed",
      "type": "event"
    },
    {
      "anonymous": false,
      "inputs": [
        {
          "indexed": true,
          "internalType": "contract IHATClaimsManager",
          "name": "_vault",
          "type": "address"
        },
        {
          "indexed": true,
          "internalType": "bytes32",
          "name": "_claimId",
          "type": "bytes32"
        },
        {
          "indexed": true,
          "internalType": "address",
          "name": "_disputer",
          "type": "address"
        },
        {
          "indexed": false,
          "internalType": "uint256",
          "name": "_bondAmount",
          "type": "uint256"
        },
        {
          "indexed": false,
          "internalType": "string",
          "name": "_descriptionHash",
          "type": "string"
        }
      ],
      "name": "ClaimDisputed",
      "type": "event"
    },
    {
      "anonymous": false,
      "inputs": [
        {
          "indexed": true,
          "internalType": "address",
          "name": "_court",
          "type": "address"
        }
      ],
      "name": "CourtSet",
      "type": "event"
    },
    {
      "anonymous": false,
      "inputs": [
        {
          "indexed": true,
          "internalType": "contract IHATClaimsManager",
          "name": "_vault",
          "type": "address"
        },
        {
          "indexed": true,
          "internalType": "bytes32",
          "name": "_claimId",
          "type": "bytes32"
        },
        {
          "indexed": false,
          "internalType": "uint16",
          "name": "_bountyPercentage",
          "type": "uint16"
        },
        {
          "indexed": false,
          "internalType": "address",
          "name": "_beneficiary",
          "type": "address"
        },
        {
          "indexed": false,
          "internalType": "string",
          "name": "_descriptionHash",
          "type": "string"
        }
      ],
      "name": "DisputeAccepted",
      "type": "event"
    },
    {
      "anonymous": false,
      "inputs": [
        {
          "indexed": true,
          "internalType": "contract IHATClaimsManager",
          "name": "_vault",
          "type": "address"
        },
        {
          "indexed": true,
          "internalType": "bytes32",
          "name": "_claimId",
          "type": "bytes32"
        },
        {
          "indexed": false,
          "internalType": "string",
          "name": "_descriptionHash",
          "type": "string"
        }
      ],
      "name": "DisputeDismissed",
      "type": "event"
    },
    {
      "anonymous": false,
      "inputs": [
        {
          "indexed": true,
          "internalType": "contract IHATClaimsManager",
          "name": "_vault",
          "type": "address"
        },
        {
          "indexed": true,
          "internalType": "bytes32",
          "name": "_claimId",
          "type": "bytes32"
        },
        {
          "indexed": false,
          "internalType": "address[]",
          "name": "_disputers",
          "type": "address[]"
        }
      ],
      "name": "DisputersConfiscated",
      "type": "event"
    },
    {
      "anonymous": false,
      "inputs": [
        {
          "indexed": true,
          "internalType": "contract IHATClaimsManager",
          "name": "_vault",
          "type": "address"
        },
        {
          "indexed": true,
          "internalType": "bytes32",
          "name": "_claimId",
          "type": "bytes32"
        },
        {
          "indexed": false,
          "internalType": "address[]",
          "name": "_disputers",
          "type": "address[]"
        }
      ],
      "name": "DisputersRefunded",
      "type": "event"
    },
    {
      "anonymous": false,
      "inputs": [
        {
          "indexed": true,
          "internalType": "address",
          "name": "previousOwner",
          "type": "address"
        },
        {
          "indexed": true,
          "internalType": "address",
          "name": "newOwner",
          "type": "address"
        }
      ],
      "name": "OwnershipTransferred",
      "type": "event"
    },
    {
      "anonymous": false,
      "inputs": [
        {
          "indexed": true,
          "internalType": "contract IHATClaimsManager",
          "name": "_vault",
          "type": "address"
        },
        {
          "indexed": true,
          "internalType": "bytes32",
          "name": "_claimId",
          "type": "bytes32"
        }
      ],
      "name": "ResolutionChallenged",
      "type": "event"
    },
    {
      "anonymous": false,
      "inputs": [
        {
          "indexed": true,
          "internalType": "contract IHATClaimsManager",
          "name": "_vault",
          "type": "address"
        },
        {
          "indexed": true,
          "internalType": "bytes32",
          "name": "_claimId",
          "type": "bytes32"
        }
      ],
      "name": "ResolutionDismissed",
      "type": "event"
    },
    {
      "anonymous": false,
      "inputs": [
        {
          "indexed": true,
          "internalType": "contract IHATClaimsManager",
          "name": "_vault",
          "type": "address"
        },
        {
          "indexed": true,
          "internalType": "bytes32",
          "name": "_claimId",
          "type": "bytes32"
        }
      ],
      "name": "ResolutionExecuted",
      "type": "event"
    },
    {
      "anonymous": false,
      "inputs": [
        {
          "indexed": true,
          "internalType": "bytes32",
          "name": "_internalClaimId",
          "type": "bytes32"
        },
        {
          "indexed": true,
          "internalType": "bytes32",
          "name": "_claimId",
          "type": "bytes32"
        },
        {
          "indexed": true,
          "internalType": "contract IHATClaimsManager",
          "name": "_vault",
          "type": "address"
        }
      ],
      "name": "SubmitClaimRequestApproved",
      "type": "event"
    },
    {
      "anonymous": false,
      "inputs": [
        {
          "indexed": true,
          "internalType": "bytes32",
          "name": "_internalClaimId",
          "type": "bytes32"
        },
        {
          "indexed": true,
          "internalType": "address",
          "name": "_submitter",
          "type": "address"
        },
        {
          "indexed": false,
          "internalType": "uint256",
          "name": "_bond",
          "type": "uint256"
        },
        {
          "indexed": false,
          "internalType": "string",
          "name": "_descriptionHash",
          "type": "string"
        }
      ],
      "name": "SubmitClaimRequestCreated",
      "type": "event"
    },
    {
      "anonymous": false,
      "inputs": [
        {
          "indexed": true,
          "internalType": "bytes32",
          "name": "_internalClaimId",
          "type": "bytes32"
        },
        {
          "indexed": false,
          "internalType": "string",
          "name": "_descriptionHash",
          "type": "string"
        }
      ],
      "name": "SubmitClaimRequestDismissed",
      "type": "event"
    },
    {
      "anonymous": false,
      "inputs": [
        {
          "indexed": true,
          "internalType": "bytes32",
          "name": "_internalClaimId",
          "type": "bytes32"
        }
      ],
      "name": "SubmitClaimRequestExpired",
      "type": "event"
    },
    {
      "inputs": [
        {
          "internalType": "contract IHATClaimsManager",
          "name": "_vault",
          "type": "address"
        },
        {
          "internalType": "bytes32",
          "name": "_claimId",
          "type": "bytes32"
        },
        {
          "internalType": "uint16",
          "name": "_bountyPercentage",
          "type": "uint16"
        },
        {
          "internalType": "address",
          "name": "_beneficiary",
          "type": "address"
        },
        {
          "internalType": "address[]",
          "name": "_disputersToRefund",
          "type": "address[]"
        },
        {
          "internalType": "address[]",
          "name": "_disputersToConfiscate",
          "type": "address[]"
        },
        {
          "internalType": "string",
          "name": "_descriptionHash",
          "type": "string"
        }
      ],
      "name": "acceptDispute",
      "outputs": [],
      "stateMutability": "nonpayable",
      "type": "function"
    },
    {
      "inputs": [
        {
          "internalType": "contract IHATClaimsManager",
          "name": "_vault",
          "type": "address"
        },
        {
          "internalType": "bytes32",
          "name": "_internalClaimId",
          "type": "bytes32"
        },
        {
          "internalType": "address",
          "name": "_beneficiary",
          "type": "address"
        },
        {
          "internalType": "uint16",
          "name": "_bountyPercentage",
          "type": "uint16"
        },
        {
          "internalType": "string",
          "name": "_descriptionHash",
          "type": "string"
        }
      ],
      "name": "approveSubmitClaimRequest",
      "outputs": [],
      "stateMutability": "nonpayable",
      "type": "function"
    },
    {
      "inputs": [
        {
          "internalType": "address",
          "name": "",
          "type": "address"
        },
        {
          "internalType": "contract IHATClaimsManager",
          "name": "",
          "type": "address"
        },
        {
          "internalType": "bytes32",
          "name": "",
          "type": "bytes32"
        }
      ],
      "name": "bondClaimable",
      "outputs": [
        {
          "internalType": "bool",
          "name": "",
          "type": "bool"
        }
      ],
      "stateMutability": "view",
      "type": "function"
    },
    {
      "inputs": [],
      "name": "bondsNeededToStartDispute",
      "outputs": [
        {
          "internalType": "uint256",
          "name": "",
          "type": "uint256"
        }
      ],
      "stateMutability": "view",
      "type": "function"
    },
    {
      "inputs": [
        {
          "internalType": "contract IHATClaimsManager",
          "name": "_vault",
          "type": "address"
        },
        {
          "internalType": "bytes32",
          "name": "_claimId",
          "type": "bytes32"
        },
        {
          "internalType": "string",
          "name": "_evidence",
          "type": "string"
        }
      ],
      "name": "challengeResolution",
      "outputs": [],
      "stateMutability": "payable",
      "type": "function"
    },
    {
      "inputs": [
        {
          "internalType": "contract IHATClaimsManager",
          "name": "",
          "type": "address"
        },
        {
          "internalType": "bytes32",
          "name": "",
          "type": "bytes32"
        }
      ],
      "name": "claimDisputesDismissed",
      "outputs": [
        {
          "internalType": "bool",
          "name": "",
          "type": "bool"
        }
      ],
      "stateMutability": "view",
      "type": "function"
    },
    {
      "inputs": [
        {
          "internalType": "contract IHATClaimsManager",
          "name": "_vault",
          "type": "address"
        },
        {
          "internalType": "bytes32",
          "name": "_claimId",
          "type": "bytes32"
        },
        {
          "internalType": "address[]",
          "name": "_disputersToConfiscate",
          "type": "address[]"
        }
      ],
      "name": "confiscateDisputers",
      "outputs": [],
      "stateMutability": "nonpayable",
      "type": "function"
    },
    {
      "inputs": [],
      "name": "court",
      "outputs": [
        {
          "internalType": "address",
          "name": "",
          "type": "address"
        }
      ],
      "stateMutability": "view",
      "type": "function"
    },
    {
      "inputs": [
        {
          "internalType": "contract IHATClaimsManager",
          "name": "_vault",
          "type": "address"
        },
        {
          "internalType": "bytes32",
          "name": "_claimId",
          "type": "bytes32"
        },
        {
          "internalType": "string",
          "name": "_descriptionHash",
          "type": "string"
        }
      ],
      "name": "dismissDispute",
      "outputs": [],
      "stateMutability": "nonpayable",
      "type": "function"
    },
    {
      "inputs": [
        {
          "internalType": "contract IHATClaimsManager",
          "name": "_vault",
          "type": "address"
        },
        {
          "internalType": "bytes32",
          "name": "_claimId",
          "type": "bytes32"
        }
      ],
      "name": "dismissResolution",
      "outputs": [],
      "stateMutability": "nonpayable",
      "type": "function"
    },
    {
      "inputs": [
        {
          "internalType": "bytes32",
          "name": "_internalClaimId",
          "type": "bytes32"
        },
        {
          "internalType": "string",
          "name": "_descriptionHash",
          "type": "string"
        }
      ],
      "name": "dismissSubmitClaimRequest",
      "outputs": [],
      "stateMutability": "nonpayable",
      "type": "function"
    },
    {
      "inputs": [
        {
          "internalType": "contract IHATClaimsManager",
          "name": "_vault",
          "type": "address"
        },
        {
          "internalType": "bytes32",
          "name": "_claimId",
          "type": "bytes32"
        },
        {
          "internalType": "uint256",
          "name": "_bondAmount",
          "type": "uint256"
        },
        {
          "internalType": "string",
          "name": "_descriptionHash",
          "type": "string"
        }
      ],
      "name": "dispute",
      "outputs": [],
      "stateMutability": "nonpayable",
      "type": "function"
    },
    {
      "inputs": [
        {
          "internalType": "address",
          "name": "",
          "type": "address"
        },
        {
          "internalType": "contract IHATClaimsManager",
          "name": "",
          "type": "address"
        },
        {
          "internalType": "bytes32",
          "name": "",
          "type": "bytes32"
        }
      ],
      "name": "disputersBonds",
      "outputs": [
        {
          "internalType": "uint256",
          "name": "",
          "type": "uint256"
        }
      ],
      "stateMutability": "view",
      "type": "function"
    },
    {
      "inputs": [
        {
          "internalType": "contract IHATClaimsManager",
          "name": "_vault",
          "type": "address"
        },
        {
          "internalType": "bytes32",
          "name": "_claimId",
          "type": "bytes32"
        }
      ],
      "name": "executeResolution",
      "outputs": [],
      "stateMutability": "nonpayable",
      "type": "function"
    },
    {
      "inputs": [],
      "name": "expertCommittee",
      "outputs": [
        {
          "internalType": "address",
          "name": "",
          "type": "address"
        }
      ],
      "stateMutability": "view",
      "type": "function"
    },
    {
      "inputs": [],
      "name": "minBondAmount",
      "outputs": [
        {
          "internalType": "uint256",
          "name": "",
          "type": "uint256"
        }
      ],
      "stateMutability": "view",
      "type": "function"
    },
    {
      "inputs": [],
      "name": "owner",
      "outputs": [
        {
          "internalType": "address",
          "name": "",
          "type": "address"
        }
      ],
      "stateMutability": "view",
      "type": "function"
    },
    {
      "inputs": [
        {
          "internalType": "contract IHATClaimsManager",
          "name": "_vault",
          "type": "address"
        },
        {
          "internalType": "bytes32",
          "name": "_claimId",
          "type": "bytes32"
        }
      ],
      "name": "reclaimBond",
      "outputs": [],
      "stateMutability": "nonpayable",
      "type": "function"
    },
    {
      "inputs": [
        {
          "internalType": "contract IHATClaimsManager",
          "name": "_vault",
          "type": "address"
        },
        {
          "internalType": "bytes32",
          "name": "_claimId",
          "type": "bytes32"
        },
        {
          "internalType": "address[]",
          "name": "_disputersToRefund",
          "type": "address[]"
        }
      ],
      "name": "refundDisputers",
      "outputs": [],
      "stateMutability": "nonpayable",
      "type": "function"
    },
    {
      "inputs": [
        {
          "internalType": "bytes32",
          "name": "_internalClaimId",
          "type": "bytes32"
        }
      ],
      "name": "refundExpiredSubmitClaimRequest",
      "outputs": [],
      "stateMutability": "nonpayable",
      "type": "function"
    },
    {
      "inputs": [],
      "name": "renounceOwnership",
      "outputs": [],
      "stateMutability": "nonpayable",
      "type": "function"
    },
    {
      "inputs": [],
      "name": "resolutionChallengePeriod",
      "outputs": [
        {
          "internalType": "uint256",
          "name": "",
          "type": "uint256"
        }
      ],
      "stateMutability": "view",
      "type": "function"
    },
    {
      "inputs": [
        {
          "internalType": "contract IHATClaimsManager",
          "name": "",
          "type": "address"
        },
        {
          "internalType": "bytes32",
          "name": "",
          "type": "bytes32"
        }
      ],
      "name": "resolutionChallengedAt",
      "outputs": [
        {
          "internalType": "uint256",
          "name": "",
          "type": "uint256"
        }
      ],
      "stateMutability": "view",
      "type": "function"
    },
    {
      "inputs": [
        {
          "internalType": "contract IHATClaimsManager",
          "name": "",
          "type": "address"
        },
        {
          "internalType": "bytes32",
          "name": "",
          "type": "bytes32"
        }
      ],
      "name": "resolutions",
      "outputs": [
        {
          "internalType": "address",
          "name": "beneficiary",
          "type": "address"
        },
        {
          "internalType": "uint16",
          "name": "bountyPercentage",
          "type": "uint16"
        },
        {
          "internalType": "uint256",
          "name": "resolvedAt",
          "type": "uint256"
        }
      ],
      "stateMutability": "view",
      "type": "function"
    },
    {
      "inputs": [
        {
          "internalType": "address",
          "name": "_court",
          "type": "address"
        }
      ],
      "name": "setCourt",
      "outputs": [],
      "stateMutability": "nonpayable",
      "type": "function"
    },
    {
      "inputs": [
        {
          "internalType": "string",
          "name": "_descriptionHash",
          "type": "string"
        }
      ],
      "name": "submitClaimRequest",
      "outputs": [],
      "stateMutability": "nonpayable",
      "type": "function"
    },
    {
      "inputs": [],
      "name": "submitClaimRequestReviewPeriod",
      "outputs": [
        {
          "internalType": "uint256",
          "name": "",
          "type": "uint256"
        }
      ],
      "stateMutability": "view",
      "type": "function"
    },
    {
      "inputs": [
        {
          "internalType": "bytes32",
          "name": "",
          "type": "bytes32"
        }
      ],
      "name": "submitClaimRequests",
      "outputs": [
        {
          "internalType": "address",
          "name": "submitter",
          "type": "address"
        },
        {
          "internalType": "uint256",
          "name": "bond",
          "type": "uint256"
        },
        {
          "internalType": "uint256",
          "name": "submittedAt",
          "type": "uint256"
        },
        {
          "internalType": "string",
          "name": "descriptionHash",
          "type": "string"
        }
      ],
      "stateMutability": "view",
      "type": "function"
    },
    {
      "inputs": [],
      "name": "token",
      "outputs": [
        {
          "internalType": "contract IERC20",
          "name": "",
          "type": "address"
        }
      ],
      "stateMutability": "view",
      "type": "function"
    },
    {
      "inputs": [
        {
          "internalType": "contract IHATClaimsManager",
          "name": "",
          "type": "address"
        },
        {
          "internalType": "bytes32",
          "name": "",
          "type": "bytes32"
        }
      ],
      "name": "totalBondsOnClaim",
      "outputs": [
        {
          "internalType": "uint256",
          "name": "",
          "type": "uint256"
        }
      ],
      "stateMutability": "view",
      "type": "function"
    },
    {
      "inputs": [
        {
          "internalType": "address",
          "name": "newOwner",
          "type": "address"
        }
      ],
      "name": "transferOwnership",
      "outputs": [],
      "stateMutability": "nonpayable",
      "type": "function"
    }
  ],
  "transactionHash": "0x2f57fb42007657ee09b5372579eb881ce5c3289addb8433b968a062ec0b7152b",
  "args": [
    "0xFA6579F3Bb1793eFaB541de06763b872E11bfCBe",
    "0xbdb34BB8665510d331FacAAaA0eeAe994a5B6612",
    "10000000000000000000",
    "1000000000000000000",
    604800,
    900
  ],
  "numDeployments": 1,
  "solcInputHash": "579124222395e9458f06f5a2ed1ea107",
  "bytecode": "0x6080346200010757601f620029e038819003918201601f19168301916001600160401b038311848410176200010c5780849260c094604052833981010312620001075780516001600160a01b039190828116908190036200010757602082015190838216809203620001075760408301519260608101519260a06080830151920151926000549060018060a01b0319913383821617600055604051983391167f8be0079c531659141344cd1fd0a4f28419497f9722a3daafe3b4186f6b6457e060008ba38160015416176001556003541617600355836005558260045560065560075511620000f8576040516128bd9081620001238239f35b6332935b7f60e21b8152600490fd5b600080fd5b634e487b7160e01b600052604160045260246000fdfe608060408181526004918236101561001657600080fd5b600092833560e01c918262971a3014611ebd5750816319fe326114611e5e578163256f184914611bdb5781633912f71f14611bbd5781633aea2a2114611b765781633ff699d214611b5757816343ccbfd914611b2e57816348fd4fe614611ac4578163658c652f14611930578163664f1fd5146118ef578163715018a614611892578163769f271f146118515781637a302103146117775781637c88c2761461156257816380468b01146112c357816381b53ed2146111d757816384f4ef4714610f5457816388fca20614610d675781638b4cac7914610d485781638da5cb5b14610d20578163962665e014610ace578163abf15bb314610a3a578163ae28faed14610827578163c76d9db9146107e6578163c9cab09d146106ba578163cb6ec2c514610674578163de0759ae14610655578163e8352e57146103c6578163ecacc8ad14610275578163f2fde38b146101a4575063fc0c546a1461017957600080fd5b346101a057816003193601126101a05760035490516001600160a01b039091168152602090f35b5080fd5b905034610271576020366003190112610271576101bf611ee2565b6101c76121b2565b6001600160a01b0390811691821561021f575060005492826bffffffffffffffffffffffff60a01b8516176000555192167f8be0079c531659141344cd1fd0a4f28419497f9722a3daafe3b4186f6b6457e0600084a3f35b608490602085519162461bcd60e51b8352820152602660248201527f4f776e61626c653a206e6577206f776e657220697320746865207a65726f206160448201526564647265737360d01b6064820152fd5b8280fd5b8383346101a0576102853661212a565b6001549093919291906001600160a01b0390811633036103b6578116855163c1dbca6360e01b81526101a09081818b81865afa9182156103ac57899261037f575b50508381510361036f5763ffffffff908160a0820151161561035f57808261014061030282608061030c96015116836101208601511690612356565b9201511690612356565b1642101561034f578652600c602052848620828752602052600185872001541561033f5761033c94959650612686565b51f35b8451635398628560e01b81528790fd5b85516341524ecf60e11b81528890fd5b875163b442c7dd60e01b81528a90fd5b8651630b5ace7b60e01b81528990fd5b61039e9250803d106103a5575b6103968183611fee565b81019061223c565b89806102c6565b503d61038c565b88513d8b823e3d90fd5b8551634ff6d1b960e01b81528890fd5b905034610271576080366003190112610271576103e1611ee2565b90602435906044356064356001600160401b038111610651576104079036908401611f28565b9490918354811061064157865163c1dbca6360e01b81526001600160a01b0392831694906101a090818184818a5afa918215610637578b9261061a575b50508681510361060b579089913383526104ad84602096600888528c86208a60005288528c6000208b875288528c862061047f838254612333565b9055898652600b88528c86208b875288528c862061049e838254612333565b9055600354163090339061238f565b868352600b8552898320888452855289832054600554111561050e575b5050506105087f06061ca74af8f41de1aa5dc18dfde024a2dd5593e616ba696b142fbc9fcbce0e93888051948594855284015233978984019161236e565b0390a451f35b60a0015163ffffffff908116806105a0575050853b156101a05788516304165db160e01b81529081018790528181602481838a5af180156105965761057e575b50506105087f06061ca74af8f41de1aa5dc18dfde024a2dd5593e616ba696b142fbc9fcbce0e935b9389916104ca565b61058790611fc0565b61059257873861054e565b8780fd5b89513d84823e3d90fd5b620151809192935095939495018181116105f6571642116105e85750906105087f06061ca74af8f41de1aa5dc18dfde024a2dd5593e616ba696b142fbc9fcbce0e9392610576565b875163236004e360e01b8152fd5b601183634e487b7160e01b6000525260246000fd5b508751630b5ace7b60e01b8152fd5b6106309250803d106103a5576103968183611fee565b3880610444565b8a513d8d823e3d90fd5b86516321359a1f60e01b81528490fd5b8680fd5b5050346101a057816003193601126101a0576020906005549051908152f35b5050346101a05760ff8160209361068a366120f5565b9160018060a01b038091168452600988528484209116600052865282600020908252855220541690519015158152f35b9050346102715781600319360112610271578035906024356001600160401b0381116107e2576106ed9036908301611f28565b600154919290916001600160a01b0390811633036107d357848752600e6020528587209161075987519361072085611fd3565b83815416855260018101549460208101958652606061074c60036002850154948d85019586520161200f565b9101525160075490612333565b42116107c557507f01e475b4671f9cd9579c5f3d1b885d5a889b640118aa6d11a3309f27bcd79fc09392916107a991868952600e60205261079b888a20612829565b6003541690519033906125bc565b6107bf855192839260208452602084019161236e565b0390a251f35b8651631e316d9160e31b8152fd5b508451634ff6d1b960e01b8152fd5b8480fd5b5050346101a057806003193601126101a05760209181906001600160a01b0361080d611ee2565b168152600b84528181206024358252845220549051908152f35b9050346102715761083736612170565b600154929493919290916001600160a01b039182163303610a2a57811693865163c1dbca6360e01b81526101a090818184818a5afa918215610a20578a92610a03575b5050868151036109f45763ffffffff908160a082015116156109e45780826101406103028260806108b696015116836101208601511690612356565b164210156109d657848852602091600c8352878920878a5283526001888a2001546109c757906109348992878452600a85528984208985528552898420600160ff19825416179055878452600c855289842089855285524260018b8620015560035416878452600b85528984208985528552898420549033906125bc565b853b156101a05786885191630b63ad4960e11b83528201528160248201528160448201528181606481838a5af180156109bd576109a9575b50506109a37f303427359b4093e7575cd536aefe303a93cc7a2cbe10f441aa8d7b04ec511c0293875193838594855284019161236e565b0390a351f35b6109b290611fc0565b61065157863861096c565b88513d84823e3d90fd5b5086516336ab81e160e11b8152fd5b86516341524ecf60e11b8152fd5b885163b442c7dd60e01b81528390fd5b508651630b5ace7b60e01b8152fd5b610a199250803d106103a5576103968183611fee565b388061087a565b89513d8c823e3d90fd5b8651634ff6d1b960e01b81528590fd5b9190503461027157602036600319011261027157610a56611ee2565b610a5e6121b2565b6001600160a01b03908116928315610ac057600254918216610ab257506001600160a01b031916821760025551907f1f718efa4efa61072ae86507aa2a33568fdb2fe31cf2ebe4f3787415e404fea68383a2f35b825163c4988b2560e01b8152fd5b825163208a9ae560e01b8152fd5b905034610271578160031936011261027157610ae8611ee2565b825163c1dbca6360e01b81526001600160a01b039182169360243593909290916101a090818185818a5afa918215610d16578892610cf9575b505084815103610ce95763ffffffff908160a08201511615610cd9578082610140610302826080610b5d96015116836101208601511690612356565b16421015610cca57848652602090600c825283872085885282526001848820015415610cba57858752600c8252838720858852825283872091845192610ba284611f8f565b805491838316855260018186019261ffff809560a01c168452015490878601918252898b52600d8152878b2090898c5252868a20541515600014610c8c575082600254163303610c7c579088949392915b511691511690863b15610c6e578451630b63ad4960e11b815292830186905260248301526044820152818160648183895af18015610c7257610c5a575b505051917fef0c29b1d0185518564555f3a75554bc9d13311b949e10a06c7649923f327a988484a3f35b610c6390611fc0565b610c6e578338610c30565b8380fd5b83513d84823e3d90fd5b855163058aa6bb60e11b81528590fd5b51600654610c9991612333565b4210610caa57908894939291610bf3565b8551636e58b17560e01b81528590fd5b8351635398628560e01b81528390fd5b5090516341524ecf60e11b8152fd5b845163b442c7dd60e01b81528490fd5b8351630b5ace7b60e01b81528390fd5b610d0f9250803d106103a5576103968183611fee565b3880610b21565b85513d8a823e3d90fd5b5050346101a057816003193601126101a057905490516001600160a01b039091168152602090f35b5050346101a057816003193601126101a0576020906006549051908152f35b905034610271578160031936011261027157610d81611ee2565b90602435913385526020600981528486209260018060a01b038093169384600052825285600020858852825260ff868820541615600014610f0157838752600a8252858720858852825260ff8688205416610ef357855163c1dbca6360e01b81526101a09081818481895afa9182156103ac578992610ed6575b5050858151149081610ea6575b50610e9857507f941e37775573a9ae126b7b966beab6a3099c5a019181127d8e9c850198a65d7b91610e816109a3925b3389526008815287892086600052815287600020878a52815287892054928391338b5260088152898b208860005281528960002090898c525289898120553390600354166125bc565b855133815260208101919091529081906040820190565b8551632432b86560e21b8152fd5b9050610ecd63ffffffff918261014061030282608085015116836101208601511690612356565b16421038610e08565b610eec9250803d106103a5576103968183611fee565b3880610dfb565b8551636e687ceb60e11b8152fd5b507f941e37775573a9ae126b7b966beab6a3099c5a019181127d8e9c850198a65d7b91610e816109a3923389526009815287892086600052815287600020878a52815287892060ff198154169055610e38565b9050346102715760a036600319011261027157610f6f611ee2565b602435926044356001600160a01b03818116949093918590036111d2576064359361ffff85168095036111d2576084356001600160401b0381116111ce57610fba9036908401611f28565b969092826001541633036111c057888a52602090600e8252868b2094875196610fe288611fd3565b85875416885261101d600188015497858a0198895261100e60036002830154928d8d019384520161200f565b60608b01525160075490612333565b42116111b0579183869594928b9998978f958f8752600e84528c872061104290612829565b16809d868d519e8f948593849263016b397d60e51b84528c8a8501526024840152604483016060905260648301906110799261236e565b03925af1998a1561117757839a611181575b508a3b156102715788516304165db160e01b81529081018a90528281602481838f5af180156111775789928c94928c92611158575b509261113099928792600196958351986110d98a611f8f565b8952808901958652838901964288528352600c8152838320918352522094511684549161ffff60a01b905160a01b169169ffffffffffffffffffff60b01b16171783555191015580600354169251169051916125bc565b51927f8c2ee8888250bc86846f1269244359d570e0caa8b0a523d556bc61a3192e09a28585a4f35b9093508294506111689150611fc0565b6101a0578991898992386110c0565b89513d85823e3d90fd5b9099508181813d83116111a9575b6111998183611fee565b810103126102715751983861108b565b503d61118f565b8851631e316d9160e31b81528390fd5b8551634ff6d1b960e01b8152fd5b8880fd5b600080fd5b9190503461027157602036600319011261027157813591828452600e60205281842082519161120583611fd3565b60018060a01b03908183541684526001830154926020850193845261123760036002830154928888019384520161200f565b60608601525180159081156112ac575b5061129e5750906112769291858752600e602052611266858820612829565b80600354169251169051916125bc565b51907f694d7ade44dfb438d00969d97c5b899c4966e015156501d1f22bfbaee1bfd8098383a2f35b84516318dc02ab60e21b8152fd5b6112ba915060075490612333565b42111538611247565b90503461027157602080600319360112610c6e576001600160401b0390823582811161155e576112f69036908501611f28565b93600f549360001980861461154b57908791600180970180600f558351878101913060601b835260348201526034815261132f81611f8f565b51902096600554948b85519661134488611fd3565b3388528988019081528b611369611360898b01924284526123e7565b98519889611fee565b8c8852368d8b0111610271578d836003948f808f918f838f01378c01015260608b01998a528d8152600e8d52209160018060a01b03809a51166bffffffffffffffffffffffff60a01b845416178355518583015551600282015501945190815194851161153857508b6113dc8654611f55565b89601f82116114ff575b50505087908c601f861160011461147457948093819361144c9896937f1f28a325674c33a0b4655a27cd6a6c755b5bcea979b61f73d072c26182d1cc7a9c9b9a9895611469575b50501b9260031b1c19161790555b60035416600554903090339061238f565b6109a360055491878051948594855284015233968884019161236e565b01519350388061142d565b9294939190601f1985168785528a8520945b8181106114ea57509185939161144c98967f1f28a325674c33a0b4655a27cd6a6c755b5bcea979b61f73d072c26182d1cc7a9c9b9a989694106114d2575b50505050811b01905561143b565b01519060f88460031b161c19169055388080806114c4565b82840151865594870194928b01928b01611486565b8288611526945220601f870160051c8101918b881061152e575b601f0160051c0190612812565b8b38896113e6565b9091508190611519565b634e487b7160e01b8d526041905260248cfd5b634e487b7160e01b895260118352602489fd5b8580fd5b838361156d36612170565b845163c1dbca6360e01b815292966001600160a01b0394909390851691906101a09081818781875afa9182156103ac57899261175a575b50508881510361174a5763ffffffff908160a0820151161561173a5780826101406103028260806115e096015116836101208601511690612356565b1642101561172a57818752602097600c89528688208189528952600187892001541561171a57828852600c895286882081895289526116286001888a20015460065490612333565b42101561170a57828852600d89528688208189528952868820546116fa5787988389989952600d81528888209082895252428888205587519581847f8b440ae469766a2d839459c0e49a4c9badc8409d164c58ae983fac7c33b10fa88a8aa36002541692833b15610592576116bc8795869485948b99632edc218f60e01b875286015260806024860152608485019161236e565b906044830152336064830152039134905af180156116ed576116dd57505051f35b6116e690611fc0565b6101a05751f35b50505051903d90823e3d90fd5b865163f1082a9360e01b81528590fd5b8651637c3e4d8560e11b81528590fd5b8651635398628560e01b81528590fd5b85516341524ecf60e11b81528490fd5b875163b442c7dd60e01b81528690fd5b8651630b5ace7b60e01b81528590fd5b6117709250803d106103a5576103968183611fee565b89806115a4565b8383346101a0576117873661212a565b6001549093919291906001600160a01b0390811633036103b6578116855163c1dbca6360e01b81526101a09081818b81865afa9182156103ac578992611834575b50508381510361036f5763ffffffff908160a0820151161561035f57808261014061030282608061180496015116836101208601511690612356565b1642101561034f578652600c602052848620828752602052600185872001541561033f5761033c9495965061272d565b61184a9250803d106103a5576103968183611fee565b89806117c8565b5050346101a05780602092611865366120f5565b9160018060a01b038091168452600887528484209116600052855282600020908252845220549051908152f35b5050346101a057816003193601126101a0576118ac6121b2565b600080546001600160a01b0319811682559151916001600160a01b03167f8be0079c531659141344cd1fd0a4f28419497f9722a3daafe3b4186f6b6457e08284a3f35b5050346101a057806003193601126101a05760209181906001600160a01b03611916611ee2565b168152600d84528181206024358252845220549051908152f35b90503461027157816003193601126102715761194a611ee2565b825163c1dbca6360e01b81526001600160a01b039182169360243593909290916101a090818185818a5afa918215610d16578892611aa7575b505084815103610ce95763ffffffff908160a08201511615610cd95780826101406103028260806119bf96015116836101208601511690612356565b16421015610cca57848652600c6020528286208487526020526001838720015415611a9857848652600d6020528286208487526020528286205415611a8957600254163303611a7b57833b156107e257815163d52d5ee760e01b8152908101839052848160248183885af18015611a7157611a5e575b5051917fb19fdfe5efa69ba182eb1933c4df29269c92f9c9cf9911e0037458a8810e03028484a3f35b611a6a90949194611fc0565b9238611a35565b82513d87823e3d90fd5b905163058aa6bb60e11b8152fd5b50905163043f80af60e11b8152fd5b509051635398628560e01b8152fd5b611abd9250803d106103a5576103968183611fee565b3880611983565b90503461027157602036600319011261027157918192358152600e6020522090611b2a60018060a01b0383541691600184015493611b0960036002830154920161200f565b918051958695865260208601528401526080606084015260808301906120b5565b0390f35b5050346101a057816003193601126101a05760015490516001600160a01b039091168152602090f35b5050346101a057816003193601126101a0576020906007549051908152f35b5050346101a057806003193601126101a05760209160ff9082906001600160a01b03611ba0611ee2565b168152600a85528181206024358252855220541690519015158152f35b90503461027157826003193601126102715760209250549051908152f35b90508234611e5b5760e0366003190112611e5b57611bf7611ee2565b9260243560443561ffff8116809103610c6e576001600160a01b03606435818116979088900361155e576001600160401b039760843589811161059257611c419036908a01611ef8565b60a4939193358b8111611e5757611c5b9036908c01611ef8565b92909160c4359c8d11611e5357611c768c809e369101611f28565b96909780600154163303611e43578b9c9d6101a082869e9d9e16809d519283809263c1dbca6360e01b82525afa908115611e37578f91611e16575b508c815103611e075763ffffffff908160a08201511615611df7578082610140610302826080611cec96015116836101208601511690612356565b16421015611de7578d9e60018e9f9e8e9f8e9f9e815260209e8f600c815283832091835252200154611dd95750611dbf938f8f948f93948f9a7f27821fc568a73daf6622ddb38a3edfbf21572a533c44b1553e83d1e6afd6a0659f9e9d9b8f908f6109a39f9d9a998a611dba98869f9c956001965197611d6b89611f8f565b8852808801948552828801954287528252600c8152828220908d8352522094511684549161ffff60a01b905160a01b169169ffffffffffffffffffff60b01b1617178355519101558484612686565b61272d565b89519586958652850152606089850152606084019161236e565b8e516336ab81e160e11b8152fd5b8c516341524ecf60e11b81528f90fd5b508f8e5163b442c7dd60e01b8152fd5b8f8e51630b5ace7b60e01b8152fd5b611e3191506101a03d6101a0116103a5576103968183611fee565b38611cb1565b8f8f51903d90823e3d90fd5b8b51634ff6d1b960e01b81528e90fd5b8a80fd5b8980fd5b80fd5b5050346101a057806003193601126101a0576060916001600160a01b039190819083611e88611ee2565b168152600c6020528181206024358252602052209061ffff60018354930154928251948116855260a01c166020840152820152f35b8490346101a057816003193601126101a0576002546001600160a01b03168152602090f35b600435906001600160a01b03821682036111d257565b9181601f840112156111d2578235916001600160401b0383116111d2576020808501948460051b0101116111d257565b9181601f840112156111d2578235916001600160401b0383116111d257602083818601950101116111d257565b90600182811c92168015611f85575b6020831014611f6f57565b634e487b7160e01b600052602260045260246000fd5b91607f1691611f64565b606081019081106001600160401b03821117611faa57604052565b634e487b7160e01b600052604160045260246000fd5b6001600160401b038111611faa57604052565b608081019081106001600160401b03821117611faa57604052565b90601f801991011681019081106001600160401b03821117611faa57604052565b906040519182600082549261202384611f55565b908184526001948581169081600014612092575060011461204f575b505061204d92500383611fee565b565b9093915060005260209081600020936000915b81831061207a57505061204d9350820101388061203f565b85548884018501529485019487945091830191612062565b91505061204d94506020925060ff191682840152151560051b820101388061203f565b919082519283825260005b8481106120e1575050826000602080949584010152601f8019910116010190565b6020818301810151848301820152016120c0565b60609060031901126111d2576001600160a01b039060043582811681036111d2579160243590811681036111d2579060443590565b60606003198201126111d2576004356001600160a01b03811681036111d2579160243591604435906001600160401b0382116111d25761216c91600401611ef8565b9091565b60606003198201126111d2576004356001600160a01b03811681036111d2579160243591604435906001600160401b0382116111d25761216c91600401611f28565b6000546001600160a01b031633036121c657565b606460405162461bcd60e51b815260206004820152602060248201527f4f776e61626c653a2063616c6c6572206973206e6f7420746865206f776e65726044820152fd5b51906001600160a01b03821682036111d257565b519063ffffffff821682036111d257565b519081151582036111d257565b80916101a092839103126111d2576040519182018281106001600160401b03821117611faa57604052805182526122756020820161220a565b6020830152604081015161ffff811681036111d257604083015261229b6060820161220a565b60608301526122ac6080820161221e565b60808301526122bd60a0820161221e565b60a083015260c081015160c083015260e081015160e08301526101006122e481830161220a565b908301526101206122f681830161221e565b9083015261014061230881830161221e565b9083015261016061231a81830161222f565b9083015261232c61018080920161222f565b9082015290565b9190820180921161234057565b634e487b7160e01b600052601160045260246000fd5b91909163ffffffff8080941691160191821161234057565b908060209392818452848401376000828201840152601f01601f1916010190565b6040516323b872dd60e01b60208201526001600160a01b03928316602482015292909116604483015260648083019390935291815260a08101918183106001600160401b03841117611faa5761204d92604052612402565b6001600160401b038111611faa57601f01601f191660200190565b60018060a01b03169060405160408101908082106001600160401b03831117611faa57612491916040526020938482527f5361666545524332303a206c6f772d6c6576656c2063616c6c206661696c6564858301526000808587829751910182855af13d1561251b573d91612476836123e7565b926124846040519485611fee565b83523d868885013e61251f565b908151806124a0575b50505050565b82849181010312611e5b5750816124b7910161222f565b156124c45780808061249a565b6084906040519062461bcd60e51b82526004820152602a60248201527f5361666545524332303a204552433230206f7065726174696f6e20646964206e6044820152691bdd081cdd58d8d9595960b21b6064820152fd5b6060915b919290156125815750815115612533575090565b3b1561253c5790565b60405162461bcd60e51b815260206004820152601d60248201527f416464726573733a2063616c6c20746f206e6f6e2d636f6e74726163740000006044820152606490fd5b8251909150156125945750805190602001fd5b60405162461bcd60e51b8152602060048201529081906125b89060248301906120b5565b0390fd5b60405163a9059cbb60e01b60208201526001600160a01b0392909216602483015260448083019390935291815261204d916125f8606483611fee565b612402565b919081101561260d5760051b0190565b634e487b7160e01b600052603260045260246000fd5b356001600160a01b03811681036111d25790565b9091604060209282848201858352520192916000805b83821061265c57505050505090565b9091929394853560018060a01b03811680910361027157815283019483019392916001019061264d565b92909260005b8281106126d757506040516001600160a01b03909116927f0bcfb67e36c33d88f665f1a107d56fae2ed17840e54c7d334e41b40861a931009282916126d2919083612637565b0390a3565b6001600160a01b03806126f36126ee8487896125fd565b612623565b1660005260206009815260409182600020908516600052815281600020908760005252600020906001918260ff198254161790550161268c565b92909260009183835b868382106127945750506003546001547f10d56d90871b65282721a41db3c59a3f03f874e8ad078a387bf2b69bd9ae9b25956001600160a01b0395946126d29450926127869287169087166125bc565b604051938493169583612637565b9194600192600091866001600160a01b03806127b46126ee888b8e6125fd565b1685526008906127f26126ee888b6127ec602098878a5260409a878c8e209a16998a8e528b528b8d20908d528a528a8c205490612333565b9e6125fd565b16855282528284209084528152818320908a845252812055018490612736565b81811061281d575050565b60008155600101612812565b6003600091828155826001820155826002820155016128488154611f55565b8061285257505050565b601f8111600114612861575055565b8183526020832061287d91601f0160051c810190600101612812565b816020812091555556fea26469706673582212206862c1e5c502f8b4157007c8f287e031c7e1cd53b77061eb03486e1727659c1264736f6c63430008100033",
  "devdoc": {
    "kind": "dev",
    "methods": {
      "owner()": {
        "details": "Returns the address of the current owner."
      },
      "renounceOwnership()": {
        "details": "Leaves the contract without owner. It will not be possible to call `onlyOwner` functions anymore. Can only be called by the current owner. NOTE: Renouncing ownership will leave the contract without an owner, thereby removing any functionality that is only available to the owner."
      },
      "transferOwnership(address)": {
        "details": "Transfers ownership of the contract to a new account (`newOwner`). Can only be called by the current owner."
      }
    },
    "version": 1
  },
  "userdoc": {
    "kind": "user",
    "methods": {
      "acceptDispute(address,bytes32,uint16,address,address[],address[],string)": {
        "notice": "See {IHATArbitrator-acceptDispute}. "
      },
      "approveSubmitClaimRequest(address,bytes32,address,uint16,string)": {
        "notice": "See {IHATArbitrator-approveSubmitClaimRequest}. "
      },
      "challengeResolution(address,bytes32,string)": {
        "notice": "See {IHATArbitrator-challengeResolution}. "
      },
      "confiscateDisputers(address,bytes32,address[])": {
        "notice": "See {IHATArbitrator-confiscateDisputers}. "
      },
      "dismissDispute(address,bytes32,string)": {
        "notice": "See {IHATArbitrator-dismissDispute}. "
      },
      "dismissResolution(address,bytes32)": {
        "notice": "See {IHATArbitrator-dismissResolution}. "
      },
      "dismissSubmitClaimRequest(bytes32,string)": {
        "notice": "See {IHATArbitrator-dismissSubmitClaimRequest}. "
      },
      "dispute(address,bytes32,uint256,string)": {
        "notice": "See {IHATArbitrator-dispute}. "
      },
      "executeResolution(address,bytes32)": {
        "notice": "See {IHATArbitrator-executeResolution}. "
      },
      "reclaimBond(address,bytes32)": {
        "notice": "See {IHATArbitrator-reclaimBond}. "
      },
      "refundDisputers(address,bytes32,address[])": {
        "notice": "See {IHATArbitrator-refundDisputers}. "
      },
      "refundExpiredSubmitClaimRequest(bytes32)": {
        "notice": "See {IHATArbitrator-refundExpiredSubmitClaimRequest}. "
      },
      "setCourt(address)": {
        "notice": "See {IHATArbitrator-setCourt}. "
      },
      "submitClaimRequest(string)": {
        "notice": "See {IHATArbitrator-submitClaimRequest}. "
      }
    },
    "version": 1
  },
  "storageLayout": {
    "storage": [
      {
        "astId": 278,
        "contract": "contracts/HATArbitrator.sol:HATArbitrator",
        "label": "_owner",
        "offset": 0,
        "slot": "0",
        "type": "t_address"
      },
      {
        "astId": 1147,
        "contract": "contracts/HATArbitrator.sol:HATArbitrator",
        "label": "expertCommittee",
        "offset": 0,
        "slot": "1",
        "type": "t_address"
      },
      {
        "astId": 1149,
        "contract": "contracts/HATArbitrator.sol:HATArbitrator",
        "label": "court",
        "offset": 0,
        "slot": "2",
        "type": "t_address"
      },
      {
        "astId": 1152,
        "contract": "contracts/HATArbitrator.sol:HATArbitrator",
        "label": "token",
        "offset": 0,
        "slot": "3",
        "type": "t_contract(IERC20)461"
      },
      {
        "astId": 1154,
        "contract": "contracts/HATArbitrator.sol:HATArbitrator",
        "label": "minBondAmount",
        "offset": 0,
        "slot": "4",
        "type": "t_uint256"
      },
      {
        "astId": 1156,
        "contract": "contracts/HATArbitrator.sol:HATArbitrator",
        "label": "bondsNeededToStartDispute",
        "offset": 0,
        "slot": "5",
        "type": "t_uint256"
      },
      {
        "astId": 1158,
        "contract": "contracts/HATArbitrator.sol:HATArbitrator",
        "label": "resolutionChallengePeriod",
        "offset": 0,
        "slot": "6",
        "type": "t_uint256"
      },
      {
        "astId": 1160,
        "contract": "contracts/HATArbitrator.sol:HATArbitrator",
        "label": "submitClaimRequestReviewPeriod",
        "offset": 0,
        "slot": "7",
        "type": "t_uint256"
      },
      {
        "astId": 1169,
        "contract": "contracts/HATArbitrator.sol:HATArbitrator",
        "label": "disputersBonds",
        "offset": 0,
        "slot": "8",
        "type": "t_mapping(t_address,t_mapping(t_contract(IHATClaimsManager)3119,t_mapping(t_bytes32,t_uint256)))"
      },
      {
        "astId": 1178,
        "contract": "contracts/HATArbitrator.sol:HATArbitrator",
        "label": "bondClaimable",
        "offset": 0,
        "slot": "9",
        "type": "t_mapping(t_address,t_mapping(t_contract(IHATClaimsManager)3119,t_mapping(t_bytes32,t_bool)))"
      },
      {
        "astId": 1185,
        "contract": "contracts/HATArbitrator.sol:HATArbitrator",
        "label": "claimDisputesDismissed",
        "offset": 0,
        "slot": "10",
        "type": "t_mapping(t_contract(IHATClaimsManager)3119,t_mapping(t_bytes32,t_bool))"
      },
      {
        "astId": 1192,
        "contract": "contracts/HATArbitrator.sol:HATArbitrator",
        "label": "totalBondsOnClaim",
        "offset": 0,
        "slot": "11",
        "type": "t_mapping(t_contract(IHATClaimsManager)3119,t_mapping(t_bytes32,t_uint256))"
      },
      {
        "astId": 1200,
        "contract": "contracts/HATArbitrator.sol:HATArbitrator",
        "label": "resolutions",
        "offset": 0,
        "slot": "12",
        "type": "t_mapping(t_contract(IHATClaimsManager)3119,t_mapping(t_bytes32,t_struct(Resolution)2425_storage))"
      },
      {
        "astId": 1207,
        "contract": "contracts/HATArbitrator.sol:HATArbitrator",
        "label": "resolutionChallengedAt",
        "offset": 0,
        "slot": "13",
        "type": "t_mapping(t_contract(IHATClaimsManager)3119,t_mapping(t_bytes32,t_uint256))"
      },
      {
        "astId": 1212,
        "contract": "contracts/HATArbitrator.sol:HATArbitrator",
        "label": "submitClaimRequests",
        "offset": 0,
        "slot": "14",
        "type": "t_mapping(t_bytes32,t_struct(SubmitClaimRequest)2434_storage)"
      },
      {
        "astId": 1214,
        "contract": "contracts/HATArbitrator.sol:HATArbitrator",
        "label": "nonce",
        "offset": 0,
        "slot": "15",
        "type": "t_uint256"
      }
    ],
    "types": {
      "t_address": {
        "encoding": "inplace",
        "label": "address",
        "numberOfBytes": "20"
      },
      "t_bool": {
        "encoding": "inplace",
        "label": "bool",
        "numberOfBytes": "1"
      },
      "t_bytes32": {
        "encoding": "inplace",
        "label": "bytes32",
        "numberOfBytes": "32"
      },
      "t_contract(IERC20)461": {
        "encoding": "inplace",
        "label": "contract IERC20",
        "numberOfBytes": "20"
      },
      "t_contract(IHATClaimsManager)3119": {
        "encoding": "inplace",
        "label": "contract IHATClaimsManager",
        "numberOfBytes": "20"
      },
      "t_mapping(t_address,t_mapping(t_contract(IHATClaimsManager)3119,t_mapping(t_bytes32,t_bool)))": {
        "encoding": "mapping",
        "key": "t_address",
        "label": "mapping(address => mapping(contract IHATClaimsManager => mapping(bytes32 => bool)))",
        "numberOfBytes": "32",
        "value": "t_mapping(t_contract(IHATClaimsManager)3119,t_mapping(t_bytes32,t_bool))"
      },
      "t_mapping(t_address,t_mapping(t_contract(IHATClaimsManager)3119,t_mapping(t_bytes32,t_uint256)))": {
        "encoding": "mapping",
        "key": "t_address",
        "label": "mapping(address => mapping(contract IHATClaimsManager => mapping(bytes32 => uint256)))",
        "numberOfBytes": "32",
        "value": "t_mapping(t_contract(IHATClaimsManager)3119,t_mapping(t_bytes32,t_uint256))"
      },
      "t_mapping(t_bytes32,t_bool)": {
        "encoding": "mapping",
        "key": "t_bytes32",
        "label": "mapping(bytes32 => bool)",
        "numberOfBytes": "32",
        "value": "t_bool"
      },
      "t_mapping(t_bytes32,t_struct(Resolution)2425_storage)": {
        "encoding": "mapping",
        "key": "t_bytes32",
        "label": "mapping(bytes32 => struct IHATArbitrator.Resolution)",
        "numberOfBytes": "32",
        "value": "t_struct(Resolution)2425_storage"
      },
      "t_mapping(t_bytes32,t_struct(SubmitClaimRequest)2434_storage)": {
        "encoding": "mapping",
        "key": "t_bytes32",
        "label": "mapping(bytes32 => struct IHATArbitrator.SubmitClaimRequest)",
        "numberOfBytes": "32",
        "value": "t_struct(SubmitClaimRequest)2434_storage"
      },
      "t_mapping(t_bytes32,t_uint256)": {
        "encoding": "mapping",
        "key": "t_bytes32",
        "label": "mapping(bytes32 => uint256)",
        "numberOfBytes": "32",
        "value": "t_uint256"
      },
      "t_mapping(t_contract(IHATClaimsManager)3119,t_mapping(t_bytes32,t_bool))": {
        "encoding": "mapping",
        "key": "t_contract(IHATClaimsManager)3119",
        "label": "mapping(contract IHATClaimsManager => mapping(bytes32 => bool))",
        "numberOfBytes": "32",
        "value": "t_mapping(t_bytes32,t_bool)"
      },
      "t_mapping(t_contract(IHATClaimsManager)3119,t_mapping(t_bytes32,t_struct(Resolution)2425_storage))": {
        "encoding": "mapping",
        "key": "t_contract(IHATClaimsManager)3119",
        "label": "mapping(contract IHATClaimsManager => mapping(bytes32 => struct IHATArbitrator.Resolution))",
        "numberOfBytes": "32",
        "value": "t_mapping(t_bytes32,t_struct(Resolution)2425_storage)"
      },
      "t_mapping(t_contract(IHATClaimsManager)3119,t_mapping(t_bytes32,t_uint256))": {
        "encoding": "mapping",
        "key": "t_contract(IHATClaimsManager)3119",
        "label": "mapping(contract IHATClaimsManager => mapping(bytes32 => uint256))",
        "numberOfBytes": "32",
        "value": "t_mapping(t_bytes32,t_uint256)"
      },
      "t_string_storage": {
        "encoding": "bytes",
        "label": "string",
        "numberOfBytes": "32"
      },
      "t_struct(Resolution)2425_storage": {
        "encoding": "inplace",
        "label": "struct IHATArbitrator.Resolution",
        "members": [
          {
            "astId": 2420,
            "contract": "contracts/HATArbitrator.sol:HATArbitrator",
            "label": "beneficiary",
            "offset": 0,
            "slot": "0",
            "type": "t_address"
          },
          {
            "astId": 2422,
            "contract": "contracts/HATArbitrator.sol:HATArbitrator",
            "label": "bountyPercentage",
            "offset": 20,
            "slot": "0",
            "type": "t_uint16"
          },
          {
            "astId": 2424,
            "contract": "contracts/HATArbitrator.sol:HATArbitrator",
            "label": "resolvedAt",
            "offset": 0,
            "slot": "1",
            "type": "t_uint256"
          }
        ],
        "numberOfBytes": "64"
      },
      "t_struct(SubmitClaimRequest)2434_storage": {
        "encoding": "inplace",
        "label": "struct IHATArbitrator.SubmitClaimRequest",
        "members": [
          {
            "astId": 2427,
            "contract": "contracts/HATArbitrator.sol:HATArbitrator",
            "label": "submitter",
            "offset": 0,
            "slot": "0",
            "type": "t_address"
          },
          {
            "astId": 2429,
            "contract": "contracts/HATArbitrator.sol:HATArbitrator",
            "label": "bond",
            "offset": 0,
            "slot": "1",
            "type": "t_uint256"
          },
          {
            "astId": 2431,
            "contract": "contracts/HATArbitrator.sol:HATArbitrator",
            "label": "submittedAt",
            "offset": 0,
            "slot": "2",
            "type": "t_uint256"
          },
          {
            "astId": 2433,
            "contract": "contracts/HATArbitrator.sol:HATArbitrator",
            "label": "descriptionHash",
            "offset": 0,
            "slot": "3",
            "type": "t_string_storage"
          }
        ],
        "numberOfBytes": "128"
      },
      "t_uint16": {
        "encoding": "inplace",
        "label": "uint16",
        "numberOfBytes": "2"
      },
      "t_uint256": {
        "encoding": "inplace",
        "label": "uint256",
        "numberOfBytes": "32"
      }
    }
  }
}