{
  "address": "0xe826D4458Ae6088d007A0545EDafA58b42Ae43BE",
  "abi": [
    {
      "inputs": [
        {
          "internalType": "contract IArbitrator",
          "name": "_klerosArbitrator",
          "type": "address"
        },
        {
          "internalType": "bytes",
          "name": "_arbitratorExtraData",
          "type": "bytes"
        },
        {
          "internalType": "contract IHATArbitrator",
          "name": "_hatArbitrator",
          "type": "address"
        },
        {
          "internalType": "string",
          "name": "_metaEvidence",
          "type": "string"
        },
        {
          "internalType": "uint256",
          "name": "_winnerMultiplier",
          "type": "uint256"
        },
        {
          "internalType": "uint256",
          "name": "_loserMultiplier",
          "type": "uint256"
        }
      ],
      "stateMutability": "nonpayable",
      "type": "constructor"
    },
    {
      "anonymous": false,
      "inputs": [
        {
          "indexed": true,
          "internalType": "bytes32",
          "name": "_claimId",
          "type": "bytes32"
        }
      ],
      "name": "Challenged",
      "type": "event"
    },
    {
      "anonymous": false,
      "inputs": [
        {
          "indexed": true,
          "internalType": "uint256",
          "name": "_localDisputeID",
          "type": "uint256"
        },
        {
          "indexed": true,
          "internalType": "uint256",
          "name": "_round",
          "type": "uint256"
        },
        {
          "indexed": false,
          "internalType": "uint256",
          "name": "ruling",
          "type": "uint256"
        },
        {
          "indexed": true,
          "internalType": "address",
          "name": "_contributor",
          "type": "address"
        },
        {
          "indexed": false,
          "internalType": "uint256",
          "name": "_amount",
          "type": "uint256"
        }
      ],
      "name": "Contribution",
      "type": "event"
    },
    {
      "anonymous": false,
      "inputs": [
        {
          "indexed": true,
          "internalType": "contract IArbitrator",
          "name": "_arbitrator",
          "type": "address"
        },
        {
          "indexed": true,
          "internalType": "uint256",
          "name": "_disputeID",
          "type": "uint256"
        },
        {
          "indexed": false,
          "internalType": "uint256",
          "name": "_metaEvidenceID",
          "type": "uint256"
        },
        {
          "indexed": false,
          "internalType": "uint256",
          "name": "_evidenceGroupID",
          "type": "uint256"
        }
      ],
      "name": "Dispute",
      "type": "event"
    },
    {
      "anonymous": false,
      "inputs": [
        {
          "indexed": true,
          "internalType": "contract IArbitrator",
          "name": "_arbitrator",
          "type": "address"
        },
        {
          "indexed": true,
          "internalType": "uint256",
          "name": "_evidenceGroupID",
          "type": "uint256"
        },
        {
          "indexed": true,
          "internalType": "address",
          "name": "_party",
          "type": "address"
        },
        {
          "indexed": false,
          "internalType": "string",
          "name": "_evidence",
          "type": "string"
        }
      ],
      "name": "Evidence",
      "type": "event"
    },
    {
      "anonymous": false,
      "inputs": [
        {
          "indexed": true,
          "internalType": "uint256",
          "name": "_metaEvidenceID",
          "type": "uint256"
        },
        {
          "indexed": false,
          "internalType": "string",
          "name": "_evidence",
          "type": "string"
        }
      ],
      "name": "MetaEvidence",
      "type": "event"
    },
    {
      "anonymous": false,
      "inputs": [
        {
          "indexed": true,
          "internalType": "address",
          "name": "previousOwner",
          "type": "address"
        },
        {
          "indexed": true,
          "internalType": "address",
          "name": "newOwner",
          "type": "address"
        }
      ],
      "name": "OwnershipTransferred",
      "type": "event"
    },
    {
      "anonymous": false,
      "inputs": [
        {
          "indexed": true,
          "internalType": "contract IArbitrator",
          "name": "_arbitrator",
          "type": "address"
        },
        {
          "indexed": true,
          "internalType": "uint256",
          "name": "_disputeID",
          "type": "uint256"
        },
        {
          "indexed": false,
          "internalType": "uint256",
          "name": "_ruling",
          "type": "uint256"
        }
      ],
      "name": "Ruling",
      "type": "event"
    },
    {
      "anonymous": false,
      "inputs": [
        {
          "indexed": true,
          "internalType": "uint256",
          "name": "_localDisputeID",
          "type": "uint256"
        },
        {
          "indexed": true,
          "internalType": "uint256",
          "name": "_round",
          "type": "uint256"
        },
        {
          "indexed": true,
          "internalType": "uint256",
          "name": "_ruling",
          "type": "uint256"
        }
      ],
      "name": "RulingFunded",
      "type": "event"
    },
    {
      "anonymous": false,
      "inputs": [
        {
          "indexed": true,
          "internalType": "uint256",
          "name": "_localDisputeID",
          "type": "uint256"
        },
        {
          "indexed": true,
          "internalType": "uint256",
          "name": "_round",
          "type": "uint256"
        },
        {
          "indexed": false,
          "internalType": "uint256",
          "name": "_ruling",
          "type": "uint256"
        },
        {
          "indexed": true,
          "internalType": "address",
          "name": "_contributor",
          "type": "address"
        },
        {
          "indexed": false,
          "internalType": "uint256",
          "name": "_reward",
          "type": "uint256"
        }
      ],
      "name": "Withdrawal",
      "type": "event"
    },
    {
      "inputs": [],
      "name": "VERSION",
      "outputs": [
        {
          "internalType": "string",
          "name": "",
          "type": "string"
        }
      ],
      "stateMutability": "view",
      "type": "function"
    },
    {
      "inputs": [],
      "name": "arbitratorExtraData",
      "outputs": [
        {
          "internalType": "bytes",
          "name": "",
          "type": "bytes"
        }
      ],
      "stateMutability": "view",
      "type": "function"
    },
    {
      "inputs": [
        {
          "internalType": "uint256",
          "name": "_loserMultiplier",
          "type": "uint256"
        }
      ],
      "name": "changeLoserMultiplier",
      "outputs": [],
      "stateMutability": "nonpayable",
      "type": "function"
    },
    {
      "inputs": [
        {
          "internalType": "string",
          "name": "_metaEvidence",
          "type": "string"
        }
      ],
      "name": "changeMetaEvidence",
      "outputs": [],
      "stateMutability": "nonpayable",
      "type": "function"
    },
    {
      "inputs": [
        {
          "internalType": "uint256",
          "name": "_winnerMultiplier",
          "type": "uint256"
        }
      ],
      "name": "changeWinnerMultiplier",
      "outputs": [],
      "stateMutability": "nonpayable",
      "type": "function"
    },
    {
      "inputs": [
        {
          "internalType": "bytes32",
          "name": "",
          "type": "bytes32"
        }
      ],
      "name": "claimChallenged",
      "outputs": [
        {
          "internalType": "bool",
          "name": "",
          "type": "bool"
        }
      ],
      "stateMutability": "view",
      "type": "function"
    },
    {
      "inputs": [
        {
          "internalType": "uint256",
          "name": "",
          "type": "uint256"
        }
      ],
      "name": "disputes",
      "outputs": [
        {
          "internalType": "bytes32",
          "name": "claimId",
          "type": "bytes32"
        },
        {
          "internalType": "uint256",
          "name": "externalDisputeId",
          "type": "uint256"
        },
        {
          "internalType": "enum IHATKlerosConnector.Decision",
          "name": "ruling",
          "type": "uint8"
        },
        {
          "internalType": "bool",
          "name": "resolved",
          "type": "bool"
        },
        {
          "internalType": "contract IHATClaimsManager",
          "name": "vault",
          "type": "address"
        }
      ],
      "stateMutability": "view",
      "type": "function"
    },
    {
      "inputs": [
        {
          "internalType": "uint256",
          "name": "",
          "type": "uint256"
        }
      ],
      "name": "externalIDtoLocalID",
      "outputs": [
        {
          "internalType": "uint256",
          "name": "",
          "type": "uint256"
        }
      ],
      "stateMutability": "view",
      "type": "function"
    },
    {
      "inputs": [
        {
          "internalType": "uint256",
          "name": "_localDisputeId",
          "type": "uint256"
        },
        {
          "internalType": "uint256",
          "name": "_side",
          "type": "uint256"
        }
      ],
      "name": "fundAppeal",
      "outputs": [
        {
          "internalType": "bool",
          "name": "",
          "type": "bool"
        }
      ],
      "stateMutability": "payable",
      "type": "function"
    },
    {
      "inputs": [],
      "name": "getArbitrationCost",
      "outputs": [
        {
          "internalType": "uint256",
          "name": "",
          "type": "uint256"
        }
      ],
      "stateMutability": "view",
      "type": "function"
    },
    {
      "inputs": [
        {
          "internalType": "uint256",
          "name": "_localDisputeId",
          "type": "uint256"
        },
        {
          "internalType": "uint256",
          "name": "_round",
          "type": "uint256"
        },
        {
          "internalType": "address",
          "name": "_contributor",
          "type": "address"
        }
      ],
      "name": "getContributions",
      "outputs": [
        {
          "internalType": "uint256[3]",
          "name": "contributions",
          "type": "uint256[3]"
        }
      ],
      "stateMutability": "view",
      "type": "function"
    },
    {
      "inputs": [],
      "name": "getMultipliers",
      "outputs": [
        {
          "internalType": "uint256",
          "name": "winner",
          "type": "uint256"
        },
        {
          "internalType": "uint256",
          "name": "loser",
          "type": "uint256"
        },
        {
          "internalType": "uint256",
          "name": "loserAppealPeriod",
          "type": "uint256"
        },
        {
          "internalType": "uint256",
          "name": "divisor",
          "type": "uint256"
        }
      ],
      "stateMutability": "view",
      "type": "function"
    },
    {
      "inputs": [
        {
          "internalType": "uint256",
          "name": "_localDisputeId",
          "type": "uint256"
        }
      ],
      "name": "getNumberOfRounds",
      "outputs": [
        {
          "internalType": "uint256",
          "name": "",
          "type": "uint256"
        }
      ],
      "stateMutability": "view",
      "type": "function"
    },
    {
      "inputs": [
        {
          "internalType": "uint256",
          "name": "_localDisputeId",
          "type": "uint256"
        },
        {
          "internalType": "uint256",
          "name": "_round",
          "type": "uint256"
        }
      ],
      "name": "getRoundInfo",
      "outputs": [
        {
          "internalType": "uint256[3]",
          "name": "paidFees",
          "type": "uint256[3]"
        },
        {
          "internalType": "bool[3]",
          "name": "hasPaid",
          "type": "bool[3]"
        },
        {
          "internalType": "uint256",
          "name": "feeRewards",
          "type": "uint256"
        },
        {
          "internalType": "uint256[]",
          "name": "fundedSides",
          "type": "uint256[]"
        }
      ],
      "stateMutability": "view",
      "type": "function"
    },
    {
      "inputs": [
        {
          "internalType": "uint256",
          "name": "_localDisputeId",
          "type": "uint256"
        },
        {
          "internalType": "address payable",
          "name": "_beneficiary",
          "type": "address"
        },
        {
          "internalType": "uint256",
          "name": "_contributedTo",
          "type": "uint256"
        }
      ],
      "name": "getTotalWithdrawableAmount",
      "outputs": [
        {
          "internalType": "uint256",
          "name": "sum",
          "type": "uint256"
        }
      ],
      "stateMutability": "view",
      "type": "function"
    },
    {
      "inputs": [],
      "name": "hatArbitrator",
      "outputs": [
        {
          "internalType": "contract IHATArbitrator",
          "name": "",
          "type": "address"
        }
      ],
      "stateMutability": "view",
      "type": "function"
    },
    {
      "inputs": [],
      "name": "klerosArbitrator",
      "outputs": [
        {
          "internalType": "contract IArbitrator",
          "name": "",
          "type": "address"
        }
      ],
      "stateMutability": "view",
      "type": "function"
    },
    {
      "inputs": [],
      "name": "loserAppealPeriodMultiplier",
      "outputs": [
        {
          "internalType": "uint256",
          "name": "",
          "type": "uint256"
        }
      ],
      "stateMutability": "view",
      "type": "function"
    },
    {
      "inputs": [],
      "name": "loserMultiplier",
      "outputs": [
        {
          "internalType": "uint256",
          "name": "",
          "type": "uint256"
        }
      ],
      "stateMutability": "view",
      "type": "function"
    },
    {
      "inputs": [],
      "name": "metaEvidenceUpdates",
      "outputs": [
        {
          "internalType": "uint256",
          "name": "",
          "type": "uint256"
        }
      ],
      "stateMutability": "view",
      "type": "function"
    },
    {
      "inputs": [
        {
          "internalType": "bytes32",
          "name": "_claimId",
          "type": "bytes32"
        },
        {
          "internalType": "string",
          "name": "_evidence",
          "type": "string"
        },
        {
          "internalType": "contract IHATClaimsManager",
          "name": "_vault",
          "type": "address"
        },
        {
          "internalType": "address",
          "name": "_disputer",
          "type": "address"
        }
      ],
      "name": "notifyArbitrator",
      "outputs": [],
      "stateMutability": "payable",
      "type": "function"
    },
    {
      "inputs": [
        {
          "internalType": "uint256",
          "name": "",
          "type": "uint256"
        }
      ],
      "name": "numberOfRulingOptions",
      "outputs": [
        {
          "internalType": "uint256",
          "name": "",
          "type": "uint256"
        }
      ],
      "stateMutability": "pure",
      "type": "function"
    },
    {
      "inputs": [],
      "name": "owner",
      "outputs": [
        {
          "internalType": "address",
          "name": "",
          "type": "address"
        }
      ],
      "stateMutability": "view",
      "type": "function"
    },
    {
      "inputs": [],
      "name": "renounceOwnership",
      "outputs": [],
      "stateMutability": "nonpayable",
      "type": "function"
    },
    {
      "inputs": [
        {
          "internalType": "uint256",
          "name": "_disputeId",
          "type": "uint256"
        },
        {
          "internalType": "uint256",
          "name": "_ruling",
          "type": "uint256"
        }
      ],
      "name": "rule",
      "outputs": [],
      "stateMutability": "nonpayable",
      "type": "function"
    },
    {
      "inputs": [
        {
          "internalType": "uint256",
          "name": "_localDisputeId",
          "type": "uint256"
        },
        {
          "internalType": "string",
          "name": "_evidenceURI",
          "type": "string"
        }
      ],
      "name": "submitEvidence",
      "outputs": [],
      "stateMutability": "nonpayable",
      "type": "function"
    },
    {
      "inputs": [
        {
          "internalType": "address",
          "name": "newOwner",
          "type": "address"
        }
      ],
      "name": "transferOwnership",
      "outputs": [],
      "stateMutability": "nonpayable",
      "type": "function"
    },
    {
      "inputs": [],
      "name": "winnerMultiplier",
      "outputs": [
        {
          "internalType": "uint256",
          "name": "",
          "type": "uint256"
        }
      ],
      "stateMutability": "view",
      "type": "function"
    },
    {
      "inputs": [
        {
          "internalType": "uint256",
          "name": "_localDisputeId",
          "type": "uint256"
        },
        {
          "internalType": "address payable",
          "name": "_beneficiary",
          "type": "address"
        },
        {
          "internalType": "uint256",
          "name": "_round",
          "type": "uint256"
        },
        {
          "internalType": "uint256",
          "name": "_side",
          "type": "uint256"
        }
      ],
      "name": "withdrawFeesAndRewards",
      "outputs": [
        {
          "internalType": "uint256",
          "name": "reward",
          "type": "uint256"
        }
      ],
      "stateMutability": "nonpayable",
      "type": "function"
    },
    {
      "inputs": [
        {
          "internalType": "uint256",
          "name": "_localDisputeId",
          "type": "uint256"
        },
        {
          "internalType": "address payable",
          "name": "_beneficiary",
          "type": "address"
        },
        {
          "internalType": "uint256",
          "name": "_contributedTo",
          "type": "uint256"
        }
      ],
      "name": "withdrawFeesAndRewardsForAllRounds",
      "outputs": [],
      "stateMutability": "nonpayable",
      "type": "function"
    }
  ],
  "transactionHash": "0xc5281e08f92d4d27d8b7531ce097b85954e2ef0fb3c4861c31ace636f37dbe4b",
  "args": [
    "0x90992fb4E15ce0C59aEFfb376460Fda4Ee19C879",
    "0x00000000000000000000000000000000000000000000000000000000000000000000000000000000000000000000000000000000000000000000000000000003",
    "0x11a7d0501895059177e8436fe89bb1e3bdebf8d8",
    "ipfs/X",
    3000,
    7000
  ],
  "numDeployments": 1,
  "solcInputHash": "e2dd19fbd28890679930fe6b1d01ee82",
  "bytecode": "0x604060e08152346200034257620027b8803803806200001e8162000347565b92833981019060c081830312620003425780516001600160a01b03928382168203620003425760208381015190926001600160401b03918281116200034257850192601f9381858201121562000342578181876200007f93519101620003a8565b90888701519588871687036200034257606088015185811162000342578801938287860112156200034257620000bd8b9386848a98519101620003a8565b997f61606860eb6c87306811e2695215385101daab53bd6ab4e9f9049aead9363c7d60a060808c01519b01519b60009586938454923360018060a01b0319851617865582519384923391167f8be0079c531659141344cd1fd0a4f28419497f9722a3daafe3b4186f6b6457e08885a361138860c0528782526200014e81518092818b8601528a868601910162000383565b601f199c018c168101030190a260805282519485116200032e57600254956001968781811c9116801562000323575b838210146200030f57858111620002c6575b50819486116001146200025e5750509183949184939462000252575b50501b916000199060031b1c1916176002555b60a052600355600455516123c89081620003f08239608051818181610432015281816105c901528181610a1f01528181610a8501528181610b3901528181610ce001528181610d3c015281816111b1015281816115b4015261204c015260a05181818161023b01528181611232015281816112f501526114d8015260c0518181816107a301528181610f3c01526119030152f35b015192503880620001ab565b600283528183209493928692918316915b88838310620002ab575050501062000291575b505050811b01600255620001be565b015160001960f88460031b161c1916905538808062000282565b8587015188559096019594850194879350908101906200026f565b600284528284208680890160051c820192858a1062000305575b0160051c019088905b828110620002f95750506200018f565b858155018890620002e9565b92508192620002e0565b634e487b7160e01b84526022600452602484fd5b90607f16906200017d565b634e487b7160e01b82526041600452602482fd5b600080fd5b6040519190601f01601f191682016001600160401b038111838210176200036d57604052565b634e487b7160e01b600052604160045260246000fd5b60005b838110620003975750506000910152565b818101518382015260200162000386565b919291906001600160401b0381116200036d57620003d0601f8201601f191660200162000347565b93818552818301116200034257620003ed91602085019062000383565b56fe6080604052600436101561001257600080fd5b6000803560e01c806305528715146119265780630c139eb4146118eb5780630c7ac7b6146118065780632edc218f1461147e578063311a6c5614611165578063325df18814611140578063362c3479146111055780634b2f0ea0146109d1578063564a565d146108e457806363022560146108c957806368c76ffd1461084d5780636cdc090f1461082f578063715018a6146107d157806379873f8a1461077d57806386f46a591461074e5780638a9bb02a146105f85780638c5aa9c1146105b35780638d8b2d7e146105965780638da5cb5b1461056f57806390765279146104e6578063965394ab146104c85780639b3ac998146104aa578063a6a7f0eb146103b0578063c21ae06114610386578063ec85635b14610364578063f2fde38b14610296578063fc6f8f161461026a578063fc83f43514610225578063fe2dddeb146101dc5763ffa1ad741461016757600080fd5b346101d957806003193601126101d957604051604081019080821067ffffffffffffffff8311176101c3576101bf9160405260058152640322e302e360dc1b60208201526040519182916020835260208301906119d7565b0390f35b634e487b7160e01b600052604160045260246000fd5b80fd5b50346101d9576101eb36611abd565b9060036101f784611a5b565b50015492845b84811061020a5785604051f35b8061021a85610220938686611d94565b50611b3f565b6101fd565b50346101d957806003193601126101d9576040517f00000000000000000000000000000000000000000000000000000000000000006001600160a01b03168152602090f35b50346101d95760203660031901126101d9576020600361028b600435611a5b565b500154604051908152f35b50346101d95760203660031901126101d9576001600160a01b036004358181169081900361035f576102c6611ae7565b801561030b57600080546001600160a01b03198116831782556040519316907f8be0079c531659141344cd1fd0a4f28419497f9722a3daafe3b4186f6b6457e09084a3f35b60405162461bcd60e51b815260206004820152602660248201527f4f776e61626c653a206e6577206f776e657220697320746865207a65726f206160448201526564647265737360d01b6064820152608490fd5b600080fd5b50346101d957602061037e61037836611abd565b9161213d565b604051908152f35b50346101d95760203660031901126101d95760406020916004358152600783522054604051908152f35b50346101d95760403660031901126101d95760043560243567ffffffffffffffff81116104a6576103e5903690600401611a17565b919060ff60026103f484611a5b565b50015460081c16610461577fdccf2f8b2cc26eafcd61905cba744cff4b81d14740725f6376390dc6298a6a3c60405180610459339660018060a01b037f0000000000000000000000000000000000000000000000000000000000000000169583611b64565b0390a4604051f35b60405162461bcd60e51b815260206004820152601860248201527f4469737075746520616c7265616479207265736f6c76656400000000000000006044820152606490fd5b8280fd5b50346101d957806003193601126101d9576020600354604051908152f35b50346101d957806003193601126101d9576020600454604051908152f35b50346101d95760203660031901126101d95760043567ffffffffffffffff811161056b576105397f61606860eb6c87306811e2695215385101daab53bd6ab4e9f9049aead9363c7d913690600401611a17565b610544929192611ae7565b61054f600154611b3f565b928360015561056360405192839283611b64565b0390a2604051f35b5080fd5b50346101d957806003193601126101d957546040516001600160a01b039091168152602090f35b50346101d95760203660031901126101d957602060405160028152f35b50346101d957806003193601126101d9576040517f00000000000000000000000000000000000000000000000000000000000000006001600160a01b03168152602090f35b50346101d95761063661064261060d36611a45565b9290606060405161061d81611999565b369037606060405161062e81611999565b369037611a5b565b50916003809301611b8c565b5060058101549260068201916106578161234c565b90846040519101549060ff82161515815260ff602092818160081c1615158484015260101c161515604082015261068d81611999565b60405190818387549182815201908197875284872090875b81811061073a57505050826106bb9103836119b5565b604051978897610100926106d28a85810198611a95565b879060608b015b838310610720575050505060c088015260e087015251809252610120850193925b82811061070957505050500390f35b8351855286955093810193928101926001016106fa565b8151151581528c9b506001909201919087019087016106d9565b8254845292860192600192830192016106a5565b50346101d95760203660031901126101d95760ff60406020926004358152600684522054166040519015158152f35b50346101d957806003193601126101d957608060035460045460405191825260208201527f000000000000000000000000000000000000000000000000000000000000000060408201526127106060820152f35b50346101d957806003193601126101d9576107ea611ae7565b600080546001600160a01b03198116825560405191906001600160a01b03167f8be0079c531659141344cd1fd0a4f28419497f9722a3daafe3b4186f6b6457e08284a3f35b50346101d957806003193601126101d9576020600154604051908152f35b50346101d95760603660031901126101d9576044356001600160a01b0381169081900361035f57600490606060405161088581611999565b3690376108a26108958335611a5b565b5060036024359101611b8c565b50906000520160205260606108ba604060002061234c565b6108c76040518092611a95565bf35b50346101d957806003193601126101d957602061037e611ffe565b50346101d95760203660031901126101d95760043560055481101561056b57600560005260021b807f036b6384b5eca791c62761152d0c79bb0604c104a5fb6f4eb0703f3154bb3db00154907f036b6384b5eca791c62761152d0c79bb0604c104a5fb6f4eb0703f3154bb3db27f036b6384b5eca791c62761152d0c79bb0604c104a5fb6f4eb0703f3154bb3db18201549101549060ff821690604051938452602084015260038110156109bd576040830152600881901c60ff161515606083015260101c6001600160a01b0316608082015260a09150f35b634e487b7160e01b84526021600452602484fd5b506109db36611a45565b906109e581611a5b565b509060ff600283015460081c166110c057600283116110865760018201546040805163afe15cfb60e01b81526004810183905290816024817f00000000000000000000000000000000000000000000000000000000000000006001600160a01b03165afa90811561107b578690879261103d575b508042101580611034575b15610ff657604051631c3db16d60e01b8152600481018490526020816024817f00000000000000000000000000000000000000000000000000000000000000006001600160a01b03165afa8015610feb5787918991610fb6575b5003610f20575050600354905b60038401549384600019810111610f0c57610aed600019860160038301611b8c565b509460ff610afe8860038901611d5e565b90549060031b1c16610ec7576040519363791f8b7360e11b85528360048601526040602486015260208580610b3560448201611bc9565b03817f00000000000000000000000000000000000000000000000000000000000000006001600160a01b03165afa948515610ebc578995610e86575b50612710610b82610b899287611d2b565b0485611d77565b94610ba4610b978989611d84565b90549060031b1c87611c6d565b341015610e735734955b6040518981528760208201523390837fcae597f39a3ad75c2e10d46b031f023c5c2babcd58ca0491b122acda3968d4c06040600019880193a43360005260048801602052610c2c610c038a6040600020611d84565b610c138a83548360031b1c611d77565b9082549060031b600019811b9283911b16911916179055565b610c39610c038a8a611d84565b610c438989611d84565b90549060031b1c1015610d9b575b50506001600686015411610cbd575b505050916003610c80928460209660ff963411610c92575b505001611d5e565b90549060031b1c166040519015158152f35b8080610ca1610cb69434611c6d565b60405190335af1610cb0611c7a565b50611cba565b3880610c78565b90610ccb6003889301611ba8565b505060058501610cdc848254611c6d565b90557f00000000000000000000000000000000000000000000000000000000000000006001600160a01b03163b1561056b5760405192839163093225f160e31b83526004830152604060248301528180610d3860448201611bc9565b03917f00000000000000000000000000000000000000000000000000000000000000006001600160a01b03165af18015610d9057610d78575b8080610c60565b610d828591611985565b610d8c5738610d71565b8380fd5b6040513d87823e3d90fd5b610da58888611d84565b90549060031b1c610dbb60058901918254611d77565b9055600687015491600160401b831015610e5f57600183018060068a0155831015610e495788809360068a01600052602060002001556001610e008460038b01611d5e565b819291549060031b60ff811b9283911b1691191617905560001901907f39493c1b78d9a13bcc9e1d532fc7faed3889248d93affa811416ce3c6bcb1a688a604051a43880610c51565b634e487b7160e01b600052603260045260246000fd5b634e487b7160e01b8a52604160045260248afd5b610e80610b978989611d84565b95610bae565b9094506020813d602011610eb4575b81610ea2602093836119b5565b8101031261035f575193612710610b71565b3d9150610e95565b6040513d8b823e3d90fd5b60405162461bcd60e51b815260206004820152601b60248201527f41707065616c2066656520697320616c726561647920706169642e00000000006044820152606490fd5b634e487b7160e01b87526011600452602487fd5b610f61610f3a82610f346127109442611c6d565b94611c6d565b7f000000000000000000000000000000000000000000000000000000000000000090611d2b565b041115610f715760045490610acb565b60405162461bcd60e51b815260206004820152601f60248201527f41707065616c20706572696f64206973206f76657220666f72206c6f736572006044820152606490fd5b9150506020813d602011610fe3575b81610fd2602093836119b5565b8101031261035f5786905138610abe565b3d9150610fc5565b6040513d8a823e3d90fd5b60405162461bcd60e51b815260206004820152601660248201527520b83832b0b6103832b934b7b21034b99037bb32b91760511b6044820152606490fd5b50814210610a64565b9150506040813d604011611073575b81611059604093836119b5565b8101031261106f57602081519101519038610a59565b8580fd5b3d915061104c565b6040513d88823e3d90fd5b60405162461bcd60e51b815260206004820152601260248201527153696465206f7574206f6620626f756e647360701b6044820152606490fd5b60405162461bcd60e51b815260206004820152601960248201527f4469737075746520616c7265616479207265736f6c7665642e000000000000006044820152606490fd5b50346101d95760803660031901126101d9576024356001600160a01b038116810361035f5761037e6020916064359060443590600435611d94565b50346101d95760203660031901126101d95761115a611ae7565b600435600355604051f35b50346101d95761117436611a45565b81835260076020526111896040842054611a5b565b50600281019081549260ff8460081c166114465760028111611409576001600160a01b0390337f00000000000000000000000000000000000000000000000000000000000000008316036113c457936003830180549060001982019182116113b0576006916111f791611b8c565b50016001815414611397575b5060038510156113835761ffff191660ff851617610100178084559154869392909190600186036112ef5750807f000000000000000000000000000000000000000000000000000000000000000016925460101c1690823b15610d8c576040516304b1332f60e51b81526001600160a01b0392909216600483015260248201529082908290604490829084905af180156112e4576112d0575b50505b6040519081527f394027a5fa6e098a1191094d1719d6929b9abc535fcc0c8f448d6a4e7562227660203392a3604051f35b6112d990611985565b6104a657823861129c565b6040513d84823e3d90fd5b939250807f00000000000000000000000000000000000000000000000000000000000000001690813b15610d8c5760405163658c652f60e01b815260109590951c166001600160a01b03166004850152602484019190915282908183816044810103925af1801561137857611365575b5061129f565b61137190939193611985565b913861135f565b6040513d86823e3d90fd5b634e487b7160e01b87526021600452602487fd5b6113a2919550611cfb565b90549060031b1c9338611203565b634e487b7160e01b89526011600452602489fd5b60405162461bcd60e51b815260206004820152601f60248201527f4f6e6c79207468652061726269747261746f722063616e2065786563757465006044820152606490fd5b60405162461bcd60e51b815260206004820152601560248201527424b73b30b634b210393ab634b7339037b83a34b7b760591b6044820152606490fd5b60405162461bcd60e51b815260206004820152601060248201526f105b1c9958591e481c995cdbdb1d995960821b6044820152606490fd5b5060803660031901126101d9576004356024803567ffffffffffffffff8111610d8c576114af903690600401611a17565b6001600160a01b0392916044359190848316830361180257606435958587168097036117fe57857f00000000000000000000000000000000000000000000000000000000000000001633036117cb578088526020946006865260ff60408a2054166117885761151c611ffe565b9081341061174557828a526006875260408a20805460ff1916600117905560055497600160401b89101561173257908a9160018a0160055561155d8a611a5b565b5085815560028101805462010000600160b01b03191660109a909a1b62010000600160b01b03169990991790985561159760038901611ba8565b50506040805163c13517e160e01b815260026004820152928301527f000000000000000000000000000000000000000000000000000000000000000016978082806115e460448201611bc9565b0381878d5af19485156117275789948c8c9486986116c9575b50918593917f74baab670a4015ab2f1b467c5252a96141a2573f2908e58a92081e80d3cfde3d96604096948a60017fdccf2f8b2cc26eafcd61905cba744cff4b81d14740725f6376390dc6298a6a3c9f01558a82526007855285888320558234116116a4575b5050507f924044c7febe4b664a944b86c81b2d8535a49ffbce0f9fd14f409a59c61c1c6385519485a26001548352820152a361045960405192839283611b64565b8180916116b46116c19534611c6d565b8a51915af1610cb0611c7a565b38848f611663565b9450509391955093508482813d8311611720575b6116e781836119b5565b810103126101d957905193889391928a92908c7f74baab670a4015ab2f1b467c5252a96141a2573f2908e58a92081e80d3cfde3d6115fd565b503d6116dd565b6040513d85823e3d90fd5b50634e487b7160e01b8a52604160045289fd5b86601c6064926040519262461bcd60e51b845260048401528201527f53686f756c6420706179207468652066756c6c206465706f7369742e000000006044820152fd5b8560186064926040519262461bcd60e51b845260048401528201527f436c61696d20616c7265616479206368616c6c656e67656400000000000000006044820152fd5b60405162461bcd60e51b815260206004820152600c818701526b2bb937b7339031b0b63632b960a11b6044820152606490fd5b8780fd5b8680fd5b50346101d957806003193601126101d95760405190806002546118288161194b565b808552916001918083169081156118c15750600114611866575b6101bf85611852818703826119b5565b6040519182916020835260208301906119d7565b9250600283527f405787fa12a823e0f2b7631cc41b3ba8828b3321ca811111fa75cd3aa3bb5ace5b8284106118a9575050508101602001611852826101bf611842565b8054602085870181019190915290930192810161188e565b8695506101bf9693506020925061185294915060ff191682840152151560051b8201019293611842565b50346101d957806003193601126101d95760206040517f00000000000000000000000000000000000000000000000000000000000000008152f35b50346101d95760203660031901126101d957611940611ae7565b600435600455604051f35b90600182811c9216801561197b575b602083101461196557565b634e487b7160e01b600052602260045260246000fd5b91607f169161195a565b67ffffffffffffffff81116101c357604052565b6060810190811067ffffffffffffffff8211176101c357604052565b90601f8019910116810190811067ffffffffffffffff8211176101c357604052565b919082519283825260005b848110611a03575050826000602080949584010152601f8019910116010190565b6020818301810151848301820152016119e2565b9181601f8401121561035f5782359167ffffffffffffffff831161035f576020838186019501011161035f57565b604090600319011261035f576004359060243590565b600554811015610e4957600560005260021b7f036b6384b5eca791c62761152d0c79bb0604c104a5fb6f4eb0703f3154bb3db00190600090565b6000915b60038310611aa657505050565b600190825181526020809101920192019190611a99565b606090600319011261035f57600435906024356001600160a01b038116810361035f579060443590565b6000546001600160a01b03163303611afb57565b606460405162461bcd60e51b815260206004820152602060248201527f4f776e61626c653a2063616c6c6572206973206e6f7420746865206f776e65726044820152fd5b6000198114611b4e5760010190565b634e487b7160e01b600052601160045260246000fd5b90918060409360208452816020850152848401376000828201840152601f01601f1916010190565b8054821015610e49576000526007602060002091020190600090565b8054600160401b8110156101c357611bc591600182018155611b8c565b9091565b60025460009291611bd98261194b565b80825291600190818116908115611c505750600114611bf757505050565b9192935060026000527f405787fa12a823e0f2b7631cc41b3ba8828b3321ca811111fa75cd3aa3bb5ace916000925b848410611c3857505060209250010190565b80546020858501810191909152909301928101611c26565b915050602093945060ff929192191683830152151560051b010190565b91908203918211611b4e57565b3d15611cb5573d9067ffffffffffffffff82116101c35760405191611ca9601f8201601f1916602001846119b5565b82523d6000602084013e565b606090565b15611cc157565b60405162461bcd60e51b815260206004820152601260248201527108cc2d2d8cac840e8de40e6cadcc8408aa8960731b6044820152606490fd5b805415610e4957600052602060002090600090565b805460011015610e4957600052600160206000200190600090565b8060001904821181151516611b4e570290565b8115611d48570490565b634e487b7160e01b600052601260045260246000fd5b9190916003831015610e4957601f908360051c01921690565b91908201809211611b4e57565b6003821015610e49570190600090565b9392919093600080611da583611a5b565b50946003916002611db887858a01611b8c565b5097015460ff8160081c1615611fc25760ff1683811015611fae5783880160ff611de28583611d5e565b905490871b1c16611ea7575050506001600160a01b03881683526004860160205260408320611e12908290611d84565b905490831b1c975b88611e29575b50505050505050565b7f54b3cab3cb5c4aca3209db1151caff092e878011202e43a36782d4ebe0b963ae936040936004611e8f9360018060a01b0316998a845201602052611e7084868420611d84565b9091825491600019911b1b19169055808085518c8b5af1610cb0611c7a565b8151908152876020820152a438808080808080611e20565b611eb38260ff92611d5e565b905490861b1c16611f4a57505060018060a01b038816835260048601602052611f44611ef5611ee58360408720611d84565b905460058a015491861b1c611d2b565b611f3e60068901611f32611f26611f1a611f0e84611cfb565b9054908a1b1c8d611d84565b905490891b1c92611d10565b905490881b1c8b611d84565b905490871b1c90611d77565b90611d3e565b97611e1a565b829099919903611e1a579750611f608187611d84565b905490831b1c8015611fa757611f449060018060a01b038a16855260048801602052611fa2611f928460408820611d84565b905460058b015491871b1c611d2b565b611d3e565b5082611f44565b634e487b7160e01b85526021600452602485fd5b60405162461bcd60e51b8152602060048201526014602482015273111a5cdc1d5d19481b9bdd081c995cdbdb1d995960621b6044820152606490fd5b60405163f7434ea960e01b81526020806004830152808260006002546120238161194b565b9081602485015260019084828216918260001461211d5750506001146120c3575b5050819003817f00000000000000000000000000000000000000000000000000000000000000006001600160a01b03165afa9081156120b75760009161208b575b50905090565b82813d83116120b0575b61209f81836119b5565b810103126101d95750518038612085565b503d612095565b6040513d6000823e3d90fd5b6002600090815292507f405787fa12a823e0f2b7631cc41b3ba8828b3321ca811111fa75cd3aa3bb5ace5b8284106121045750505081016044018138612044565b80546044858a01015286958895509093019281016120ee565b91509350604492915060ff191682840152151560051b8201019038612044565b60009392849161214c90611a5b565b509060028201549260ff93848160081c1615612343578416946003938487101561232f5784018054929692959493928792915b87891061219157505050505050505050565b9091929394959697996121a48b83611b8c565b508884898301826121b58b83611d5e565b9054908d1b1c1661220b575050506001600160a01b0385168652600401602052604085206121fe916121f8916121ec908990611d84565b9054908a1b1c90611d77565b9a611b3f565b979695949392919061217f565b9061221591611d5e565b9054908a1b1c166122af576121fe916122a96121f892611f3e6122618c6122518d60408e8e60018060a01b031681526004880160205220611d84565b9054911b1c600584015490611d2b565b918c61229e600683019261229261228661227a86611cfb565b905490861b1c83611d84565b905490851b1c94611d10565b905490841b1c90611d84565b9054911b1c90611d77565b90611d77565b86849c929c146122c4575b506121fe90611b3f565b6121fe919b8682896122d98161231d96611d84565b9054908d1b1c91898d84156123245761230f611fa29460406122a99860059560018060a01b031681526004870160205220611d84565b9054911b1c91015490611d2b565b9a906122ba565b505050505090611d77565b634e487b7160e01b83526021600452602483fd5b50955050505050565b60405191906000835b6003821061237c575050506060820182811067ffffffffffffffff8211176101c357604052565b600160208192855481520193019101909161235556fea26469706673582212200ca6757d5ec84d02cff334b6c89702f8aaf8b4f44a0ba6bec2c7c3a6ad8b0aa864736f6c63430008100033",
  "devdoc": {
    "details": "This contract acts a connector between HatsFinance and Kleros court.  This contract trusts that the Arbitrator is honest and will not reenter or modify its costs during a call.  The arbitrator must support appeal period.  The contract also trusts that IHATArbitrator contract is honest and won't reenter.",
    "events": {
      "Challenged(bytes32)": {
        "details": "Raised when a claim is challenged.",
        "params": {
          "_claimId": "Id of the claim in Vault cotract."
        }
      }
    },
    "kind": "dev",
    "methods": {
      "changeLoserMultiplier(uint256)": {
        "details": "Changes loserMultiplier variable.",
        "params": {
          "_loserMultiplier": "The new winnerMultiplier value."
        }
      },
      "changeMetaEvidence(string)": {
        "details": "Update the meta evidence used for disputes.",
        "params": {
          "_metaEvidence": "URI of the new meta evidence."
        }
      },
      "changeWinnerMultiplier(uint256)": {
        "details": "Changes winnerMultiplier variable.",
        "params": {
          "_winnerMultiplier": "The new winnerMultiplier value."
        }
      },
      "constructor": {
        "details": "Constructor.",
        "params": {
          "_arbitratorExtraData": "Extra data for the arbitrator.",
          "_hatArbitrator": "Address of the Hat arbitrator.",
          "_klerosArbitrator": "The Kleros arbitrator of the contract.",
          "_loserMultiplier": "Multiplier for calculation the appeal cost of the losing side.",
          "_metaEvidence": "Metaevidence for the dispute.",
          "_winnerMultiplier": "Multiplier for calculating the appeal cost of the winning side."
        }
      },
      "fundAppeal(uint256,uint256)": {
        "details": "Takes up to the total amount required to fund a side. Reimburses the rest. Creates an appeal if both sides are fully funded.",
        "params": {
          "_localDisputeId": "The ID of the local dispute.",
          "_side": "The option to fund. 0 - refuse to rule, 1 - make no changes, 2 - side with challenger."
        },
        "returns": {
          "_0": "fullyFunded Whether the side was fully funded or not."
        }
      },
      "getArbitrationCost()": {
        "details": "Get the arbitration cost to challenge a claim.",
        "returns": {
          "_0": "Arbitration cost."
        }
      },
      "getContributions(uint256,uint256,address)": {
        "details": "Gets the contributions made by a party for a given round of a dispute.",
        "params": {
          "_contributor": "The address of the contributor.",
          "_localDisputeId": "The ID of the dispute.",
          "_round": "The round to query."
        },
        "returns": {
          "contributions": "The contributions."
        }
      },
      "getMultipliers()": {
        "details": "Returns stake multipliers.",
        "returns": {
          "divisor": "Multiplier divisor.",
          "loser": "Losers stake multiplier.",
          "loserAppealPeriod": "Multiplier for calculating an appeal period duration for the losing side.",
          "winner": "Winners stake multiplier."
        }
      },
      "getNumberOfRounds(uint256)": {
        "details": "Gets the number of rounds of the specific dispute.",
        "params": {
          "_localDisputeId": "The ID of the dispute."
        },
        "returns": {
          "_0": "The number of rounds."
        }
      },
      "getRoundInfo(uint256,uint256)": {
        "details": "Gets the information of a round of a dispute.",
        "params": {
          "_localDisputeId": "The ID of the dispute.",
          "_round": "The round to query."
        },
        "returns": {
          "feeRewards": "The amount of fees that will be used as rewards.",
          "fundedSides": "Fully funded sides.",
          "hasPaid": "True if the side is fully funded",
          "paidFees": "The amount of fees paid for each side."
        }
      },
      "getTotalWithdrawableAmount(uint256,address,uint256)": {
        "details": "Returns the sum of withdrawable amount.This function is O(n) where n is the total number of rounds.This could exceed the gas limit, therefore this function should be used only as a utility and not be relied upon by other contracts.",
        "params": {
          "_beneficiary": "The contributor for which to query.",
          "_contributedTo": "Side that received contributions from contributor.",
          "_localDisputeId": "The ID of the dispute."
        },
        "returns": {
          "sum": "The total amount available to withdraw."
        }
      },
      "notifyArbitrator(bytes32,string,address,address)": {
        "details": "Notify KlerosArbitrator that expert's committee decision was challenged. Can only be called by Hat arbitrator.  Requires the arbitration fees to be paid.",
        "params": {
          "_claimId": "The Id of the active claim in Vault contract.",
          "_disputer": "Address that made the challenge.  Note that the validity of the claim should be checked by Hat arbitrator.",
          "_evidence": "URI of the evidence to support the challenge.",
          "_vault": "Relevant vault address."
        }
      },
      "numberOfRulingOptions(uint256)": {
        "details": "Returns number of possible ruling options. Valid rulings are [0, return value].",
        "returns": {
          "_0": "count The number of ruling options."
        }
      },
      "owner()": {
        "details": "Returns the address of the current owner."
      },
      "renounceOwnership()": {
        "details": "Leaves the contract without owner. It will not be possible to call `onlyOwner` functions anymore. Can only be called by the current owner. NOTE: Renouncing ownership will leave the contract without an owner, thereby removing any functionality that is only available to the owner."
      },
      "rule(uint256,uint256)": {
        "details": "Give a ruling for a dispute. Can only be called by the Kleros arbitrator.",
        "params": {
          "_disputeId": "ID of the dispute in the Kleros arbitrator contract.",
          "_ruling": "Ruling given by the arbitrator. Note that 0 is reserved for \"Refused to arbitrate\"."
        }
      },
      "submitEvidence(uint256,string)": {
        "details": "Submit a reference to evidence. EVENT.",
        "params": {
          "_evidenceURI": "Link to evidence.",
          "_localDisputeId": "The id of the related dispute."
        }
      },
      "transferOwnership(address)": {
        "details": "Transfers ownership of the contract to a new account (`newOwner`). Can only be called by the current owner."
      },
      "withdrawFeesAndRewards(uint256,address,uint256,uint256)": {
        "details": "Sends the fee stake rewards and reimbursements proportional to the contributions made to the winner of a dispute. Reimburses contributions if there is no winner.",
        "params": {
          "_beneficiary": "The address to send reward to.",
          "_localDisputeId": "The ID of the related dispute.",
          "_round": "The round from which to withdraw.",
          "_side": "The ruling to query the reward from."
        },
        "returns": {
          "reward": "The withdrawn amount."
        }
      },
      "withdrawFeesAndRewardsForAllRounds(uint256,address,uint256)": {
        "details": "Allows to withdraw any rewards or reimbursable fees for all rounds at once.This function is O(n) where n is the total number of rounds. Arbitration cost of subsequent rounds is `A(n) = 2A(n-1) + 1`.  Thus because of this exponential growth of costs, you can assume n is less than 10 at all times.",
        "params": {
          "_beneficiary": "The address that made contributions.",
          "_contributedTo": "Side that received contributions from contributor.",
          "_localDisputeId": "The ID of the related dispute."
        }
      }
    },
    "stateVariables": {
      "externalIDtoLocalID": {
        "details": "Maps external (arbitrator side) dispute id to local (arbitrable) dispute id.",
        "params": {
          "_externalDisputeID": "Dispute id as in arbitrator contract."
        },
        "return": "Dispute id as in arbitrable contract.",
        "returns": {
          "_0": "Dispute id as in arbitrable contract."
        }
      }
    },
    "title": "HATKlerosConnector",
    "version": 1
  },
  "userdoc": {
    "kind": "user",
    "methods": {},
    "version": 1
  },
  "storageLayout": {
    "storage": [
      {
        "astId": 5155,
        "contract": "contracts/HATKlerosConnector.sol:HATKlerosConnector",
        "label": "_owner",
        "offset": 0,
        "slot": "0",
        "type": "t_address"
      },
      {
        "astId": 17079,
        "contract": "contracts/HATKlerosConnector.sol:HATKlerosConnector",
        "label": "metaEvidenceUpdates",
        "offset": 0,
        "slot": "1",
        "type": "t_uint256"
      },
      {
        "astId": 17081,
        "contract": "contracts/HATKlerosConnector.sol:HATKlerosConnector",
        "label": "arbitratorExtraData",
        "offset": 0,
        "slot": "2",
        "type": "t_bytes_storage"
      },
      {
        "astId": 17083,
        "contract": "contracts/HATKlerosConnector.sol:HATKlerosConnector",
        "label": "winnerMultiplier",
        "offset": 0,
        "slot": "3",
        "type": "t_uint256"
      },
      {
        "astId": 17085,
        "contract": "contracts/HATKlerosConnector.sol:HATKlerosConnector",
        "label": "loserMultiplier",
        "offset": 0,
        "slot": "4",
        "type": "t_uint256"
      },
      {
        "astId": 17092,
        "contract": "contracts/HATKlerosConnector.sol:HATKlerosConnector",
        "label": "disputes",
        "offset": 0,
        "slot": "5",
        "type": "t_array(t_struct(DisputeStruct)17051_storage)dyn_storage"
      },
      {
        "astId": 17096,
        "contract": "contracts/HATKlerosConnector.sol:HATKlerosConnector",
        "label": "claimChallenged",
        "offset": 0,
        "slot": "6",
        "type": "t_mapping(t_bytes32,t_bool)"
      },
      {
        "astId": 17101,
        "contract": "contracts/HATKlerosConnector.sol:HATKlerosConnector",
        "label": "externalIDtoLocalID",
        "offset": 0,
        "slot": "7",
        "type": "t_mapping(t_uint256,t_uint256)"
      }
    ],
    "types": {
      "t_address": {
        "encoding": "inplace",
        "label": "address",
        "numberOfBytes": "20"
      },
      "t_array(t_bool)3_storage": {
        "base": "t_bool",
        "encoding": "inplace",
        "label": "bool[3]",
        "numberOfBytes": "32"
      },
      "t_array(t_struct(DisputeStruct)17051_storage)dyn_storage": {
        "base": "t_struct(DisputeStruct)17051_storage",
        "encoding": "dynamic_array",
        "label": "struct HATKlerosConnector.DisputeStruct[]",
        "numberOfBytes": "32"
      },
      "t_array(t_struct(Round)17071_storage)dyn_storage": {
        "base": "t_struct(Round)17071_storage",
        "encoding": "dynamic_array",
        "label": "struct HATKlerosConnector.Round[]",
        "numberOfBytes": "32"
      },
      "t_array(t_uint256)3_storage": {
        "base": "t_uint256",
        "encoding": "inplace",
        "label": "uint256[3]",
        "numberOfBytes": "96"
      },
      "t_array(t_uint256)dyn_storage": {
        "base": "t_uint256",
        "encoding": "dynamic_array",
        "label": "uint256[]",
        "numberOfBytes": "32"
      },
      "t_bool": {
        "encoding": "inplace",
        "label": "bool",
        "numberOfBytes": "1"
      },
      "t_bytes32": {
        "encoding": "inplace",
        "label": "bytes32",
        "numberOfBytes": "32"
      },
      "t_bytes_storage": {
        "encoding": "bytes",
        "label": "bytes",
        "numberOfBytes": "32"
      },
      "t_contract(IHATClaimsManager)23648": {
        "encoding": "inplace",
        "label": "contract IHATClaimsManager",
        "numberOfBytes": "20"
      },
      "t_enum(Decision)23655": {
        "encoding": "inplace",
        "label": "enum IHATKlerosConnector.Decision",
        "numberOfBytes": "1"
      },
      "t_mapping(t_address,t_array(t_uint256)3_storage)": {
        "encoding": "mapping",
        "key": "t_address",
        "label": "mapping(address => uint256[3])",
        "numberOfBytes": "32",
        "value": "t_array(t_uint256)3_storage"
      },
      "t_mapping(t_bytes32,t_bool)": {
        "encoding": "mapping",
        "key": "t_bytes32",
        "label": "mapping(bytes32 => bool)",
        "numberOfBytes": "32",
        "value": "t_bool"
      },
      "t_mapping(t_uint256,t_uint256)": {
        "encoding": "mapping",
        "key": "t_uint256",
        "label": "mapping(uint256 => uint256)",
        "numberOfBytes": "32",
        "value": "t_uint256"
      },
      "t_struct(DisputeStruct)17051_storage": {
        "encoding": "inplace",
        "label": "struct HATKlerosConnector.DisputeStruct",
        "members": [
          {
            "astId": 17036,
            "contract": "contracts/HATKlerosConnector.sol:HATKlerosConnector",
            "label": "claimId",
            "offset": 0,
            "slot": "0",
            "type": "t_bytes32"
          },
          {
            "astId": 17038,
            "contract": "contracts/HATKlerosConnector.sol:HATKlerosConnector",
            "label": "externalDisputeId",
            "offset": 0,
            "slot": "1",
            "type": "t_uint256"
          },
          {
            "astId": 17041,
            "contract": "contracts/HATKlerosConnector.sol:HATKlerosConnector",
            "label": "ruling",
            "offset": 0,
            "slot": "2",
            "type": "t_enum(Decision)23655"
          },
          {
            "astId": 17043,
            "contract": "contracts/HATKlerosConnector.sol:HATKlerosConnector",
            "label": "resolved",
            "offset": 1,
            "slot": "2",
            "type": "t_bool"
          },
          {
            "astId": 17046,
            "contract": "contracts/HATKlerosConnector.sol:HATKlerosConnector",
            "label": "vault",
            "offset": 2,
            "slot": "2",
            "type": "t_contract(IHATClaimsManager)23648"
          },
          {
            "astId": 17050,
            "contract": "contracts/HATKlerosConnector.sol:HATKlerosConnector",
            "label": "rounds",
            "offset": 0,
            "slot": "3",
            "type": "t_array(t_struct(Round)17071_storage)dyn_storage"
          }
        ],
        "numberOfBytes": "128"
      },
      "t_struct(Round)17071_storage": {
        "encoding": "inplace",
        "label": "struct HATKlerosConnector.Round",
        "members": [
          {
            "astId": 17055,
            "contract": "contracts/HATKlerosConnector.sol:HATKlerosConnector",
            "label": "paidFees",
            "offset": 0,
            "slot": "0",
            "type": "t_array(t_uint256)3_storage"
          },
          {
            "astId": 17059,
            "contract": "contracts/HATKlerosConnector.sol:HATKlerosConnector",
            "label": "hasPaid",
            "offset": 0,
            "slot": "3",
            "type": "t_array(t_bool)3_storage"
          },
          {
            "astId": 17065,
            "contract": "contracts/HATKlerosConnector.sol:HATKlerosConnector",
            "label": "contributions",
            "offset": 0,
            "slot": "4",
            "type": "t_mapping(t_address,t_array(t_uint256)3_storage)"
          },
          {
            "astId": 17067,
            "contract": "contracts/HATKlerosConnector.sol:HATKlerosConnector",
            "label": "feeRewards",
            "offset": 0,
            "slot": "5",
            "type": "t_uint256"
          },
          {
            "astId": 17070,
            "contract": "contracts/HATKlerosConnector.sol:HATKlerosConnector",
            "label": "fundedSides",
            "offset": 0,
            "slot": "6",
            "type": "t_array(t_uint256)dyn_storage"
          }
        ],
        "numberOfBytes": "224"
      },
      "t_uint256": {
        "encoding": "inplace",
        "label": "uint256",
        "numberOfBytes": "32"
      }
    }
  }
}